{
  "_format": "hh-sol-artifact-1",
  "contractName": "MockUSDC",
  "sourceName": "contracts/MockUSDC.sol",
  "abi": [
    {
      "inputs": [],
      "stateMutability": "nonpayable",
      "type": "constructor"
    },
    {
      "inputs": [
        {
          "internalType": "address",
          "name": "spender",
          "type": "address"
        },
        {
          "internalType": "uint256",
          "name": "allowance",
          "type": "uint256"
        },
        {
          "internalType": "uint256",
          "name": "needed",
          "type": "uint256"
        }
      ],
      "name": "ERC20InsufficientAllowance",
      "type": "error"
    },
    {
      "inputs": [
        {
          "internalType": "address",
          "name": "sender",
          "type": "address"
        },
        {
          "internalType": "uint256",
          "name": "balance",
          "type": "uint256"
        },
        {
          "internalType": "uint256",
          "name": "needed",
          "type": "uint256"
        }
      ],
      "name": "ERC20InsufficientBalance",
      "type": "error"
    },
    {
      "inputs": [
        {
          "internalType": "address",
          "name": "approver",
          "type": "address"
        }
      ],
      "name": "ERC20InvalidApprover",
      "type": "error"
    },
    {
      "inputs": [
        {
          "internalType": "address",
          "name": "receiver",
          "type": "address"
        }
      ],
      "name": "ERC20InvalidReceiver",
      "type": "error"
    },
    {
      "inputs": [
        {
          "internalType": "address",
          "name": "sender",
          "type": "address"
        }
      ],
      "name": "ERC20InvalidSender",
      "type": "error"
    },
    {
      "inputs": [
        {
          "internalType": "address",
          "name": "spender",
          "type": "address"
        }
      ],
      "name": "ERC20InvalidSpender",
      "type": "error"
    },
    {
      "anonymous": false,
      "inputs": [
        {
          "indexed": true,
          "internalType": "address",
          "name": "owner",
          "type": "address"
        },
        {
          "indexed": true,
          "internalType": "address",
          "name": "spender",
          "type": "address"
        },
        {
          "indexed": false,
          "internalType": "uint256",
          "name": "value",
          "type": "uint256"
        }
      ],
      "name": "Approval",
      "type": "event"
    },
    {
      "anonymous": false,
      "inputs": [
        {
          "indexed": true,
          "internalType": "address",
          "name": "from",
          "type": "address"
        },
        {
          "indexed": true,
          "internalType": "address",
          "name": "to",
          "type": "address"
        },
        {
          "indexed": false,
          "internalType": "uint256",
          "name": "value",
          "type": "uint256"
        }
      ],
      "name": "Transfer",
      "type": "event"
    },
    {
      "inputs": [
        {
          "internalType": "address",
          "name": "owner",
          "type": "address"
        },
        {
          "internalType": "address",
          "name": "spender",
          "type": "address"
        }
      ],
      "name": "allowance",
      "outputs": [
        {
          "internalType": "uint256",
          "name": "",
          "type": "uint256"
        }
      ],
      "stateMutability": "view",
      "type": "function"
    },
    {
      "inputs": [
        {
          "internalType": "address",
          "name": "spender",
          "type": "address"
        },
        {
          "internalType": "uint256",
          "name": "value",
          "type": "uint256"
        }
      ],
      "name": "approve",
      "outputs": [
        {
          "internalType": "bool",
          "name": "",
          "type": "bool"
        }
      ],
      "stateMutability": "nonpayable",
      "type": "function"
    },
    {
      "inputs": [
        {
          "internalType": "address",
          "name": "account",
          "type": "address"
        }
      ],
      "name": "balanceOf",
      "outputs": [
        {
          "internalType": "uint256",
          "name": "",
          "type": "uint256"
        }
      ],
      "stateMutability": "view",
      "type": "function"
    },
    {
      "inputs": [],
      "name": "decimals",
      "outputs": [
        {
          "internalType": "uint8",
          "name": "",
          "type": "uint8"
        }
      ],
      "stateMutability": "view",
      "type": "function"
    },
    {
      "inputs": [],
      "name": "faucet",
      "outputs": [],
      "stateMutability": "nonpayable",
      "type": "function"
    },
    {
      "inputs": [
        {
          "internalType": "address",
          "name": "to",
          "type": "address"
        },
        {
          "internalType": "uint256",
          "name": "amount",
          "type": "uint256"
        }
      ],
      "name": "mint",
      "outputs": [],
      "stateMutability": "nonpayable",
      "type": "function"
    },
    {
      "inputs": [],
      "name": "name",
      "outputs": [
        {
          "internalType": "string",
          "name": "",
          "type": "string"
        }
      ],
      "stateMutability": "view",
      "type": "function"
    },
    {
      "inputs": [],
      "name": "symbol",
      "outputs": [
        {
          "internalType": "string",
          "name": "",
          "type": "string"
        }
      ],
      "stateMutability": "view",
      "type": "function"
    },
    {
      "inputs": [],
      "name": "totalSupply",
      "outputs": [
        {
          "internalType": "uint256",
          "name": "",
          "type": "uint256"
        }
      ],
      "stateMutability": "view",
      "type": "function"
    },
    {
      "inputs": [
        {
          "internalType": "address",
          "name": "to",
          "type": "address"
        },
        {
          "internalType": "uint256",
          "name": "value",
          "type": "uint256"
        }
      ],
      "name": "transfer",
      "outputs": [
        {
          "internalType": "bool",
          "name": "",
          "type": "bool"
        }
      ],
      "stateMutability": "nonpayable",
      "type": "function"
    },
    {
      "inputs": [
        {
          "internalType": "address",
          "name": "from",
          "type": "address"
        },
        {
          "internalType": "address",
          "name": "to",
          "type": "address"
        },
        {
          "internalType": "uint256",
          "name": "value",
          "type": "uint256"
        }
      ],
      "name": "transferFrom",
      "outputs": [
        {
          "internalType": "bool",
          "name": "",
          "type": "bool"
        }
      ],
      "stateMutability": "nonpayable",
      "type": "function"
    }
  ],
  "bytecode": "0x60806040523480156200001157600080fd5b506040518060400160405280600d81526020016c26b7b1b5902aa9a21021b7b4b760991b815250604051806040016040528060048152602001635553444360e01b8152508160039081620000669190620002b6565b506004620000758282620002b6565b50506005805460ff1916600617905550620000963364e8d4a510006200009c565b620003aa565b6001600160a01b038216620000cc5760405163ec442f0560e01b8152600060048201526024015b60405180910390fd5b620000da60008383620000de565b5050565b6001600160a01b0383166200010d57806002600082825462000101919062000382565b90915550620001819050565b6001600160a01b03831660009081526020819052604090205481811015620001625760405163391434e360e21b81526001600160a01b03851660048201526024810182905260448101839052606401620000c3565b6001600160a01b03841660009081526020819052604090209082900390555b6001600160a01b0382166200019f57600280548290039055620001be565b6001600160a01b03821660009081526020819052604090208054820190555b816001600160a01b0316836001600160a01b03167fddf252ad1be2c89b69c2b068fc378daa952ba7f163c4a11628f55a4df523b3ef836040516200020491815260200190565b60405180910390a3505050565b634e487b7160e01b600052604160045260246000fd5b600181811c908216806200023c57607f821691505b6020821081036200025d57634e487b7160e01b600052602260045260246000fd5b50919050565b601f821115620002b157600081815260208120601f850160051c810160208610156200028c5750805b601f850160051c820191505b81811015620002ad5782815560010162000298565b5050505b505050565b81516001600160401b03811115620002d257620002d262000211565b620002ea81620002e3845462000227565b8462000263565b602080601f831160018114620003225760008415620003095750858301515b600019600386901b1c1916600185901b178555620002ad565b600085815260208120601f198616915b82811015620003535788860151825594840194600190910190840162000332565b5085821015620003725787850151600019600388901b60f8161c191681555b5050505050600190811b01905550565b80820180821115620003a457634e487b7160e01b600052601160045260246000fd5b92915050565b6107ae80620003ba6000396000f3fe608060405234801561001057600080fd5b50600436106100a95760003560e01c806340c10f191161007157806340c10f191461012957806370a082311461013e57806395d89b4114610167578063a9059cbb1461016f578063dd62ed3e14610182578063de5f72fd146101bb57600080fd5b806306fdde03146100ae578063095ea7b3146100cc57806318160ddd146100ef57806323b872dd14610101578063313ce56714610114575b600080fd5b6100b66101c3565b6040516100c391906105f8565b60405180910390f35b6100df6100da366004610662565b610255565b60405190151581526020016100c3565b6002545b6040519081526020016100c3565b6100df61010f36600461068c565b61026f565b60055460405160ff90911681526020016100c3565b61013c610137366004610662565b610293565b005b6100f361014c3660046106c8565b6001600160a01b031660009081526020819052604090205490565b6100b66102a1565b6100df61017d366004610662565b6102b0565b6100f36101903660046106ea565b6001600160a01b03918216600090815260016020908152604080832093909416825291909152205490565b61013c6102be565b6060600380546101d29061071d565b80601f01602080910402602001604051908101604052809291908181526020018280546101fe9061071d565b801561024b5780601f106102205761010080835404028352916020019161024b565b820191906000526020600020905b81548152906001019060200180831161022e57829003601f168201915b5050505050905090565b6000336102638185856102ce565b60019150505b92915050565b60003361027d8582856102e0565b610288858585610364565b506001949350505050565b61029d82826103c3565b5050565b6060600480546101d29061071d565b600033610263818585610364565b6102cc33633b9aca006103c3565b565b6102db83838360016103f9565b505050565b6001600160a01b0383811660009081526001602090815260408083209386168352929052205460001981101561035e578181101561034f57604051637dc7a0d960e11b81526001600160a01b038416600482015260248101829052604481018390526064015b60405180910390fd5b61035e848484840360006103f9565b50505050565b6001600160a01b03831661038e57604051634b637e8f60e11b815260006004820152602401610346565b6001600160a01b0382166103b85760405163ec442f0560e01b815260006004820152602401610346565b6102db8383836104ce565b6001600160a01b0382166103ed5760405163ec442f0560e01b815260006004820152602401610346565b61029d600083836104ce565b6001600160a01b0384166104235760405163e602df0560e01b815260006004820152602401610346565b6001600160a01b03831661044d57604051634a1406b160e11b815260006004820152602401610346565b6001600160a01b038085166000908152600160209081526040808320938716835292905220829055801561035e57826001600160a01b0316846001600160a01b03167f8c5be1e5ebec7d5bd14f71427d1e84f3dd0314c0f7b2291e5b200ac8c7c3b925846040516104c091815260200190565b60405180910390a350505050565b6001600160a01b0383166104f95780600260008282546104ee9190610757565b9091555061056b9050565b6001600160a01b0383166000908152602081905260409020548181101561054c5760405163391434e360e21b81526001600160a01b03851660048201526024810182905260448101839052606401610346565b6001600160a01b03841660009081526020819052604090209082900390555b6001600160a01b038216610587576002805482900390556105a6565b6001600160a01b03821660009081526020819052604090208054820190555b816001600160a01b0316836001600160a01b03167fddf252ad1be2c89b69c2b068fc378daa952ba7f163c4a11628f55a4df523b3ef836040516105eb91815260200190565b60405180910390a3505050565b600060208083528351808285015260005b8181101561062557858101830151858201604001528201610609565b506000604082860101526040601f19601f8301168501019250505092915050565b80356001600160a01b038116811461065d57600080fd5b919050565b6000806040838503121561067557600080fd5b61067e83610646565b946020939093013593505050565b6000806000606084860312156106a157600080fd5b6106aa84610646565b92506106b860208501610646565b9150604084013590509250925092565b6000602082840312156106da57600080fd5b6106e382610646565b9392505050565b600080604083850312156106fd57600080fd5b61070683610646565b915061071460208401610646565b90509250929050565b600181811c9082168061073157607f821691505b60208210810361075157634e487b7160e01b600052602260045260246000fd5b50919050565b8082018082111561026957634e487b7160e01b600052601160045260246000fdfea26469706673582212205914b55d09405c2ef671136229125eb65c0827f25581034e669bceb1d0994b5164736f6c63430008140033",
  "linkReferences": {},
  "deployedLinkReferences": {}
}