{
  "_format": "hh-sol-artifact-1",
  "contractName": "QCTReserve",
  "sourceName": "contracts/QCTReserve.sol",
  "abi": [
    {
      "inputs": [
        {
          "internalType": "address",
          "name": "_usdc",
          "type": "address"
        },
        {
          "internalType": "address",
          "name": "_qct",
          "type": "address"
        },
        {
          "internalType": "address",
          "name": "initialOwner",
          "type": "address"
        }
      ],
      "stateMutability": "nonpayable",
      "type": "constructor"
    },
    {
      "inputs": [],
      "name": "EnforcedPause",
      "type": "error"
    },
    {
      "inputs": [],
      "name": "ExpectedPause",
      "type": "error"
    },
    {
      "inputs": [
        {
          "internalType": "address",
          "name": "owner",
          "type": "address"
        }
      ],
      "name": "OwnableInvalidOwner",
      "type": "error"
    },
    {
      "inputs": [
        {
          "internalType": "address",
          "name": "account",
          "type": "address"
        }
      ],
      "name": "OwnableUnauthorizedAccount",
      "type": "error"
    },
    {
      "inputs": [],
      "name": "ReentrancyGuardReentrantCall",
      "type": "error"
    },
    {
      "inputs": [
        {
          "internalType": "address",
          "name": "token",
          "type": "address"
        }
      ],
      "name": "SafeERC20FailedOperation",
      "type": "error"
    },
    {
      "anonymous": false,
      "inputs": [
        {
          "indexed": false,
          "internalType": "uint256",
          "name": "newDiscount",
          "type": "uint256"
        }
      ],
      "name": "ArbitrageFeeDiscountUpdated",
      "type": "event"
    },
    {
      "anonymous": false,
      "inputs": [
        {
          "indexed": true,
          "internalType": "address",
          "name": "user",
          "type": "address"
        },
        {
          "indexed": false,
          "internalType": "uint256",
          "name": "qctAmount",
          "type": "uint256"
        },
        {
          "indexed": false,
          "internalType": "uint256",
          "name": "usdcAmount",
          "type": "uint256"
        },
        {
          "indexed": false,
          "internalType": "uint256",
          "name": "fee",
          "type": "uint256"
        },
        {
          "indexed": false,
          "internalType": "bool",
          "name": "isArbitrage",
          "type": "bool"
        }
      ],
      "name": "Burned",
      "type": "event"
    },
    {
      "anonymous": false,
      "inputs": [
        {
          "indexed": true,
          "internalType": "address",
          "name": "token",
          "type": "address"
        },
        {
          "indexed": false,
          "internalType": "uint256",
          "name": "amount",
          "type": "uint256"
        }
      ],
      "name": "EmergencyWithdraw",
      "type": "event"
    },
    {
      "anonymous": false,
      "inputs": [
        {
          "indexed": false,
          "internalType": "uint256",
          "name": "newMintFee",
          "type": "uint256"
        },
        {
          "indexed": false,
          "internalType": "uint256",
          "name": "newBurnFee",
          "type": "uint256"
        }
      ],
      "name": "FeesUpdated",
      "type": "event"
    },
    {
      "anonymous": false,
      "inputs": [
        {
          "indexed": true,
          "internalType": "address",
          "name": "user",
          "type": "address"
        },
        {
          "indexed": false,
          "internalType": "uint256",
          "name": "usdcAmount",
          "type": "uint256"
        },
        {
          "indexed": false,
          "internalType": "uint256",
          "name": "qctAmount",
          "type": "uint256"
        },
        {
          "indexed": false,
          "internalType": "uint256",
          "name": "fee",
          "type": "uint256"
        },
        {
          "indexed": false,
          "internalType": "bool",
          "name": "isArbitrage",
          "type": "bool"
        }
      ],
      "name": "Minted",
      "type": "event"
    },
    {
      "anonymous": false,
      "inputs": [
        {
          "indexed": true,
          "internalType": "address",
          "name": "previousOwner",
          "type": "address"
        },
        {
          "indexed": true,
          "internalType": "address",
          "name": "newOwner",
          "type": "address"
        }
      ],
      "name": "OwnershipTransferred",
      "type": "event"
    },
    {
      "anonymous": false,
      "inputs": [
        {
          "indexed": false,
          "internalType": "address",
          "name": "account",
          "type": "address"
        }
      ],
      "name": "Paused",
      "type": "event"
    },
    {
      "anonymous": false,
      "inputs": [
        {
          "indexed": false,
          "internalType": "address",
          "name": "account",
          "type": "address"
        }
      ],
      "name": "Unpaused",
      "type": "event"
    },
    {
      "inputs": [],
      "name": "FEE_DENOMINATOR",
      "outputs": [
        {
          "internalType": "uint256",
          "name": "",
          "type": "uint256"
        }
      ],
      "stateMutability": "view",
      "type": "function"
    },
    {
      "inputs": [],
      "name": "MAX_FEE",
      "outputs": [
        {
          "internalType": "uint256",
          "name": "",
          "type": "uint256"
        }
      ],
      "stateMutability": "view",
      "type": "function"
    },
    {
      "inputs": [],
      "name": "MINT_RATIO",
      "outputs": [
        {
          "internalType": "uint256",
          "name": "",
          "type": "uint256"
        }
      ],
      "stateMutability": "view",
      "type": "function"
    },
    {
      "inputs": [],
      "name": "arbitrageFeeDiscount",
      "outputs": [
        {
          "internalType": "uint256",
          "name": "",
          "type": "uint256"
        }
      ],
      "stateMutability": "view",
      "type": "function"
    },
    {
      "inputs": [
        {
          "internalType": "uint256",
          "name": "qctAmount",
          "type": "uint256"
        }
      ],
      "name": "burn",
      "outputs": [
        {
          "internalType": "uint256",
          "name": "usdcAmount",
          "type": "uint256"
        }
      ],
      "stateMutability": "nonpayable",
      "type": "function"
    },
    {
      "inputs": [],
      "name": "burnFee",
      "outputs": [
        {
          "internalType": "uint256",
          "name": "",
          "type": "uint256"
        }
      ],
      "stateMutability": "view",
      "type": "function"
    },
    {
      "inputs": [
        {
          "internalType": "uint256",
          "name": "usdcAmount",
          "type": "uint256"
        }
      ],
      "name": "calculateBurnFee",
      "outputs": [
        {
          "internalType": "uint256",
          "name": "",
          "type": "uint256"
        }
      ],
      "stateMutability": "view",
      "type": "function"
    },
    {
      "inputs": [
        {
          "internalType": "uint256",
          "name": "usdcAmount",
          "type": "uint256"
        }
      ],
      "name": "calculateMintFee",
      "outputs": [
        {
          "internalType": "uint256",
          "name": "",
          "type": "uint256"
        }
      ],
      "stateMutability": "view",
      "type": "function"
    },
    {
      "inputs": [
        {
          "internalType": "address",
          "name": "token",
          "type": "address"
        },
        {
          "internalType": "uint256",
          "name": "amount",
          "type": "uint256"
        }
      ],
      "name": "emergencyWithdraw",
      "outputs": [],
      "stateMutability": "nonpayable",
      "type": "function"
    },
    {
      "inputs": [],
      "name": "getReserveRatio",
      "outputs": [
        {
          "internalType": "uint256",
          "name": "ratio",
          "type": "uint256"
        }
      ],
      "stateMutability": "view",
      "type": "function"
    },
    {
      "inputs": [],
      "name": "getReserveStats",
      "outputs": [
        {
          "internalType": "uint256",
          "name": "usdcReserves",
          "type": "uint256"
        },
        {
          "internalType": "uint256",
          "name": "qctSupply",
          "type": "uint256"
        },
        {
          "internalType": "uint256",
          "name": "reserveRatio",
          "type": "uint256"
        },
        {
          "internalType": "uint256",
          "name": "deposited",
          "type": "uint256"
        },
        {
          "internalType": "uint256",
          "name": "withdrawn",
          "type": "uint256"
        },
        {
          "internalType": "uint256",
          "name": "minted",
          "type": "uint256"
        },
        {
          "internalType": "uint256",
          "name": "burned",
          "type": "uint256"
        }
      ],
      "stateMutability": "view",
      "type": "function"
    },
    {
      "inputs": [],
      "name": "isArbitrageOpportunity",
      "outputs": [
        {
          "internalType": "bool",
          "name": "",
          "type": "bool"
        }
      ],
      "stateMutability": "pure",
      "type": "function"
    },
    {
      "inputs": [
        {
          "internalType": "uint256",
          "name": "usdcAmount",
          "type": "uint256"
        }
      ],
      "name": "mint",
      "outputs": [
        {
          "internalType": "uint256",
          "name": "qctAmount",
          "type": "uint256"
        }
      ],
      "stateMutability": "nonpayable",
      "type": "function"
    },
    {
      "inputs": [],
      "name": "mintFee",
      "outputs": [
        {
          "internalType": "uint256",
          "name": "",
          "type": "uint256"
        }
      ],
      "stateMutability": "view",
      "type": "function"
    },
    {
      "inputs": [],
      "name": "owner",
      "outputs": [
        {
          "internalType": "address",
          "name": "",
          "type": "address"
        }
      ],
      "stateMutability": "view",
      "type": "function"
    },
    {
      "inputs": [],
      "name": "pause",
      "outputs": [],
      "stateMutability": "nonpayable",
      "type": "function"
    },
    {
      "inputs": [],
      "name": "paused",
      "outputs": [
        {
          "internalType": "bool",
          "name": "",
          "type": "bool"
        }
      ],
      "stateMutability": "view",
      "type": "function"
    },
    {
      "inputs": [],
      "name": "qct",
      "outputs": [
        {
          "internalType": "contract IQCTToken",
          "name": "",
          "type": "address"
        }
      ],
      "stateMutability": "view",
      "type": "function"
    },
    {
      "inputs": [],
      "name": "renounceOwnership",
      "outputs": [],
      "stateMutability": "nonpayable",
      "type": "function"
    },
    {
      "inputs": [
        {
          "internalType": "uint256",
          "name": "_discount",
          "type": "uint256"
        }
      ],
      "name": "setArbitrageFeeDiscount",
      "outputs": [],
      "stateMutability": "nonpayable",
      "type": "function"
    },
    {
      "inputs": [
        {
          "internalType": "uint256",
          "name": "_mintFee",
          "type": "uint256"
        },
        {
          "internalType": "uint256",
          "name": "_burnFee",
          "type": "uint256"
        }
      ],
      "name": "setFees",
      "outputs": [],
      "stateMutability": "nonpayable",
      "type": "function"
    },
    {
      "inputs": [],
      "name": "totalQCTBurned",
      "outputs": [
        {
          "internalType": "uint256",
          "name": "",
          "type": "uint256"
        }
      ],
      "stateMutability": "view",
      "type": "function"
    },
    {
      "inputs": [],
      "name": "totalQCTMinted",
      "outputs": [
        {
          "internalType": "uint256",
          "name": "",
          "type": "uint256"
        }
      ],
      "stateMutability": "view",
      "type": "function"
    },
    {
      "inputs": [],
      "name": "totalUSDCDeposited",
      "outputs": [
        {
          "internalType": "uint256",
          "name": "",
          "type": "uint256"
        }
      ],
      "stateMutability": "view",
      "type": "function"
    },
    {
      "inputs": [],
      "name": "totalUSDCWithdrawn",
      "outputs": [
        {
          "internalType": "uint256",
          "name": "",
          "type": "uint256"
        }
      ],
      "stateMutability": "view",
      "type": "function"
    },
    {
      "inputs": [
        {
          "internalType": "address",
          "name": "newOwner",
          "type": "address"
        }
      ],
      "name": "transferOwnership",
      "outputs": [],
      "stateMutability": "nonpayable",
      "type": "function"
    },
    {
      "inputs": [],
      "name": "unpause",
      "outputs": [],
      "stateMutability": "nonpayable",
      "type": "function"
    },
    {
      "inputs": [],
      "name": "usdc",
      "outputs": [
        {
          "internalType": "contract IERC20",
          "name": "",
          "type": "address"
        }
      ],
      "stateMutability": "view",
      "type": "function"
    }
  ],
  "bytecode": "0x60c0604052600a600255600a60035560326004553480156200002057600080fd5b50604051620014b4380380620014b48339810160408190526200004391620001ba565b806001600160a01b0381166200007457604051631e4fbdf760e01b8152600060048201526024015b60405180910390fd5b6200007f816200014d565b50600180556001600160a01b038316620000dc5760405162461bcd60e51b815260206004820152601460248201527f496e76616c69642055534443206164647265737300000000000000000000000060448201526064016200006b565b6001600160a01b038216620001345760405162461bcd60e51b815260206004820152601360248201527f496e76616c69642051435420616464726573730000000000000000000000000060448201526064016200006b565b506001600160a01b039182166080521660a05262000204565b600080546001600160a01b038381166001600160a01b0319831681178455604051919092169283917f8be0079c531659141344cd1fd0a4f28419497f9722a3daafe3b4186f6b6457e09190a35050565b80516001600160a01b0381168114620001b557600080fd5b919050565b600080600060608486031215620001d057600080fd5b620001db846200019d565b9250620001eb602085016200019d565b9150620001fb604085016200019d565b90509250925092565b60805160a051611244620002706000396000818161034b01528181610540015281816107e00152818161090d0152610d3c015260008181610245015281816104d10152818161071301528181610851015281816109b801528181610b600152610cf801526112446000f3fe608060405234801561001057600080fd5b50600436106101c45760003560e01c8063715018a6116100f9578063bc063e1a11610097578063d73792a911610071578063d73792a914610399578063e2322640146103a2578063f2fde38b146103ab578063fce589d8146103be57600080fd5b8063bc063e1a14610380578063c802e3cd14610388578063d0ba5a731461039057600080fd5b80638da5cb5b116100d35780638da5cb5b1461032257806395ccea67146103335780639bf2714514610346578063a0712d681461036d57600080fd5b8063715018a6146102ff5780638456cb59146103075780638c674d831461030f57600080fd5b806356b6d0d5116101665780635c975abb116101405780635c975abb146102c85780635f8fde03146102da5780635fd1ce89146102e35780636ad88269146102ec57600080fd5b806356b6d0d51461029a5780635925f91b146102a25780635c095e54146102b557600080fd5b80633b0d0d4b116101a25780633b0d0d4b146102375780633e413bee146102405780633f4ba83a1461027f57806342966c681461028757600080fd5b80630b78f9c0146101c957806313966db5146101de5780632976f07e146101fa575b600080fd5b6101dc6101d73660046110e3565b6103c7565b005b6101e760025481565b6040519081526020015b60405180910390f35b6102026104a5565b604080519788526020880196909652948601939093526060850191909152608084015260a083015260c082015260e0016101f1565b6101e760075481565b6102677f000000000000000000000000000000000000000000000000000000000000000081565b6040516001600160a01b0390911681526020016101f1565b6101dc610643565b6101e7610295366004611105565b610655565b6101e7610908565b60005b60405190151581526020016101f1565b6101e76102c3366004611105565b610a7a565b600054600160a01b900460ff166102a5565b6101e760065481565b6101e760045481565b6101e76102fa366004611105565b610aa1565b6101dc610aac565b6101dc610abe565b6101dc61031d366004611105565b610ace565b6000546001600160a01b0316610267565b6101dc610341366004611135565b610b56565b6102677f000000000000000000000000000000000000000000000000000000000000000081565b6101e761037b366004611105565b610c4c565b6101e7603281565b6101e7606481565b6101e760055481565b6101e761271081565b6101e760085481565b6101dc6103b936600461115f565b610dfd565b6101e760035481565b6103cf610e3b565b60328211156104195760405162461bcd60e51b815260206004820152601160248201527009ad2dce840cccaca40e8dede40d0d2ced607b1b60448201526064015b60405180910390fd5b603281111561045e5760405162461bcd60e51b8152602060048201526011602482015270084eae4dc40cccaca40e8dede40d0d2ced607b1b6044820152606401610410565b6002829055600381905560408051838152602081018390527f5c6323bf1c2d7aaea2c091a4751c1c87af7f2864650c336507a77d0557af37a1910160405180910390a15050565b6040516370a0823160e01b81523060048201526000908190819081908190819081906001600160a01b037f000000000000000000000000000000000000000000000000000000000000000016906370a0823190602401602060405180830381865afa158015610518573d6000803e3d6000fd5b505050506040513d601f19601f8201168201806040525081019061053c919061117a565b96507f00000000000000000000000000000000000000000000000000000000000000006001600160a01b03166318160ddd6040518163ffffffff1660e01b8152600401602060405180830381865afa15801561059c573d6000803e3d6000fd5b505050506040513d601f19601f820116820180604052508101906105c0919061117a565b9550306001600160a01b03166356b6d0d56040518163ffffffff1660e01b8152600401602060405180830381865afa158015610600573d6000803e3d6000fd5b505050506040513d601f19601f82011682018060405250810190610624919061117a565b9450600554935060065492506007549150600854905090919293949596565b61064b610e3b565b610653610e68565b565b600061065f610ebd565b610667610ee8565b600082116106ac5760405162461bcd60e51b81526020600482015260126024820152710416d6f756e74206d757374206265203e20360741b6044820152606401610410565b60006106c16064670de0b6b3a76400006111a9565b6106ce84620f42406111a9565b6106d891906111c6565b905060006106e582610aa1565b90506106f181836111e8565b6040516370a0823160e01b815230600482015290935083906001600160a01b037f000000000000000000000000000000000000000000000000000000000000000016906370a0823190602401602060405180830381865afa15801561075a573d6000803e3d6000fd5b505050506040513d601f19601f8201168201806040525081019061077e919061117a565b10156107c45760405162461bcd60e51b8152602060048201526015602482015274496e73756666696369656e7420726573657276657360581b6044820152606401610410565b60405163079cc67960e41b8152336004820152602481018590527f00000000000000000000000000000000000000000000000000000000000000006001600160a01b0316906379cc679090604401600060405180830381600087803b15801561082c57600080fd5b505af1158015610840573d6000803e3d6000fd5b5061087a9250506001600160a01b037f00000000000000000000000000000000000000000000000000000000000000001690503385610f12565b826006600082825461088c91906111fb565b9250508190555083600860008282546108a591906111fb565b909155503390507f29574540eb92ab72ef987c02bf822804898378e4485763202484f49426bfdbd385858460005b604080519485526020850193909352918301521515606082015260800160405180910390a2505061090360018055565b919050565b6000807f00000000000000000000000000000000000000000000000000000000000000006001600160a01b03166318160ddd6040518163ffffffff1660e01b8152600401602060405180830381865afa158015610969573d6000803e3d6000fd5b505050506040513d601f19601f8201168201806040525081019061098d919061117a565b9050806000036109a05761271091505090565b6040516370a0823160e01b81523060048201526000907f00000000000000000000000000000000000000000000000000000000000000006001600160a01b0316906370a0823190602401602060405180830381865afa158015610a07573d6000803e3d6000fd5b505050506040513d601f19601f82011682018060405250810190610a2b919061117a565b90506000610a426064670de0b6b3a76400006111a9565b610a4f84620f42406111a9565b610a5991906111c6565b905080610a68836127106111a9565b610a7291906111c6565b935050505090565b6000806002545b9050612710610a9082856111a9565b610a9a91906111c6565b9392505050565b600080600354610a81565b610ab4610e3b565b6106536000610f76565b610ac6610e3b565b610653610fc6565b610ad6610e3b565b6064811115610b1b5760405162461bcd60e51b8152602060048201526011602482015270088d2e6c6deeadce840e8dede40d0d2ced607b1b6044820152606401610410565b60048190556040518181527f8cb8c2b867236144fdf8a02e98998d6fbadbfa350c052233720ec9662eea0d669060200160405180910390a150565b610b5e610e3b565b7f00000000000000000000000000000000000000000000000000000000000000006001600160a01b0316826001600160a01b031603610bdf5760405162461bcd60e51b815260206004820152601d60248201527f43616e6e6f7420776974686472617720555344432072657365727665730000006044820152606401610410565b610c05610bf46000546001600160a01b031690565b6001600160a01b0384169083610f12565b816001600160a01b03167f5fafa99d0643513820be26656b45130b01e1c03062e1266bf36f88cbd3bd969582604051610c4091815260200190565b60405180910390a25050565b6000610c56610ebd565b610c5e610ee8565b60008211610ca35760405162461bcd60e51b81526020600482015260126024820152710416d6f756e74206d757374206265203e20360741b6044820152606401610410565b6000610cae83610a7a565b90506000610cbc82856111e8565b9050620f4240610ccd6064836111a9565b610cdf90670de0b6b3a76400006111a9565b610ce991906111c6565b9250610d206001600160a01b037f000000000000000000000000000000000000000000000000000000000000000016333087611009565b6040516340c10f1960e01b8152336004820152602481018490527f00000000000000000000000000000000000000000000000000000000000000006001600160a01b0316906340c10f1990604401600060405180830381600087803b158015610d8857600080fd5b505af1158015610d9c573d6000803e3d6000fd5b505050508360056000828254610db291906111fb565b925050819055508260076000828254610dcb91906111fb565b909155503390507fdb753f006f288474158eddb65e4bb3ba0cc70a3be945219578288c06ed7d7ce485858560006108d3565b610e05610e3b565b6001600160a01b038116610e2f57604051631e4fbdf760e01b815260006004820152602401610410565b610e3881610f76565b50565b6000546001600160a01b031633146106535760405163118cdaa760e01b8152336004820152602401610410565b610e70611048565b6000805460ff60a01b191690557f5db9ee0a495bf2e6ff9c91a7834c1ba4fdd244a5e8aa4e537bd38aeae4b073aa335b6040516001600160a01b03909116815260200160405180910390a1565b600054600160a01b900460ff16156106535760405163d93c066560e01b815260040160405180910390fd5b600260015403610f0b57604051633ee5aeb560e01b815260040160405180910390fd5b6002600155565b6040516001600160a01b03838116602483015260448201839052610f7191859182169063a9059cbb906064015b604051602081830303815290604052915060e01b6020820180516001600160e01b038381831617835250505050611072565b505050565b600080546001600160a01b038381166001600160a01b0319831681178455604051919092169283917f8be0079c531659141344cd1fd0a4f28419497f9722a3daafe3b4186f6b6457e09190a35050565b610fce610ebd565b6000805460ff60a01b1916600160a01b1790557f62e78cea01bee320cd4e420270b5ea74000d11b0c9f74754ebdbfc544b05a258610ea03390565b6040516001600160a01b0384811660248301528381166044830152606482018390526110429186918216906323b872dd90608401610f3f565b50505050565b600054600160a01b900460ff1661065357604051638dfc202b60e01b815260040160405180910390fd5b600080602060008451602086016000885af180611095576040513d6000823e3d81fd5b50506000513d915081156110ad5780600114156110ba565b6001600160a01b0384163b155b1561104257604051635274afe760e01b81526001600160a01b0385166004820152602401610410565b600080604083850312156110f657600080fd5b50508035926020909101359150565b60006020828403121561111757600080fd5b5035919050565b80356001600160a01b038116811461090357600080fd5b6000806040838503121561114857600080fd5b6111518361111e565b946020939093013593505050565b60006020828403121561117157600080fd5b610a9a8261111e565b60006020828403121561118c57600080fd5b5051919050565b634e487b7160e01b600052601160045260246000fd5b80820281158282048414176111c0576111c0611193565b92915050565b6000826111e357634e487b7160e01b600052601260045260246000fd5b500490565b818103818111156111c0576111c0611193565b808201808211156111c0576111c061119356fea2646970667358221220f97b0a945058c25128aa921a66b1aa083f3c0a6da4882b634dfaa7fde3f34ebe64736f6c63430008140033",
  "linkReferences": {},
  "deployedLinkReferences": {}
}