{"contracts/TokenQubeACL.sol":{"TokenQubeACL":{"abi":[{"anonymous":false,"inputs":[{"indexed":true,"internalType":"uint256","name":"tokenId","type":"uint256"},{"indexed":true,"internalType":"address","name":"to","type":"address"},{"indexed":false,"internalType":"bytes32","name":"scopeHash","type":"bytes32"},{"indexed":false,"internalType":"uint64","name":"ttl","type":"uint64"},{"indexed":false,"internalType":"bytes32","name":"nonce","type":"bytes32"}],"name":"CapabilityGranted","type":"event"},{"anonymous":false,"inputs":[{"indexed":true,"internalType":"uint256","name":"tokenId","type":"uint256"},{"indexed":true,"internalType":"address","name":"from","type":"address"},{"indexed":true,"internalType":"address","name":"to","type":"address"}],"name":"OwnerTransferred","type":"event"},{"inputs":[{"internalType":"uint256","name":"tokenId","type":"uint256"},{"internalType":"address","name":"to","type":"address"},{"internalType":"bytes32","name":"scopeHash","type":"bytes32"},{"internalType":"uint64","name":"ttl","type":"uint64"},{"internalType":"bytes","name":"","type":"bytes"},{"internalType":"bytes","name":"","type":"bytes"},{"internalType":"bytes","name":"","type":"bytes"}],"name":"grantCapability","outputs":[],"stateMutability":"nonpayable","type":"function"},{"inputs":[{"internalType":"uint256","name":"","type":"uint256"}],"name":"ownerOf","outputs":[{"internalType":"address","name":"","type":"address"}],"stateMutability":"view","type":"function"},{"inputs":[{"internalType":"uint256","name":"tokenId","type":"uint256"},{"internalType":"address","name":"to","type":"address"},{"internalType":"bytes32","name":"scopeHash","type":"bytes32"}],"name":"revokeCapability","outputs":[],"stateMutability":"nonpayable","type":"function"},{"inputs":[{"internalType":"uint256","name":"tokenId","type":"uint256"},{"internalType":"address","name":"to","type":"address"},{"internalType":"bytes","name":"","type":"bytes"},{"internalType":"bytes","name":"","type":"bytes"}],"name":"transferOwnerWithDID","outputs":[],"stateMutability":"nonpayable","type":"function"},{"inputs":[{"internalType":"uint256","name":"","type":"uint256"},{"internalType":"address","name":"","type":"address"},{"internalType":"bytes32","name":"","type":"bytes32"}],"name":"ttlByScope","outputs":[{"internalType":"uint64","name":"","type":"uint64"}],"stateMutability":"view","type":"function"}],"evm":{"bytecode":{"linkReferences":{},"object":"608060405234801561001057600080fd5b50610543806100206000396000f3fe608060405234801561001057600080fd5b50600436106100575760003560e01c80630cfaf0991461005c5780636352211e14610071578063657cdf65146100b75780637407ebe31461010a578063f659299b1461011d575b600080fd5b61006f61006a366004610312565b610130565b005b61009a61007f366004610347565b6001602052600090815260409020546001600160a01b031681565b6040516001600160a01b0390911681526020015b60405180910390f35b6100f16100c5366004610312565b6000602081815293815260408082208552928152828120909352825290205467ffffffffffffffff1681565b60405167ffffffffffffffff90911681526020016100ae565b61006f6101183660046103a9565b6101af565b61006f61012b366004610483565b610294565b6000838152602081815260408083206001600160a01b0386168085529083528184208585528352818420805467ffffffffffffffff1916905581518581529283018490529082019290925284907f3b39871a92b7d862700818d19fe9a2391ac67dab05207225de271751c511570f9060600160405180910390a3505050565b60008a8152602081815260408083206001600160a01b038d168085529083528184208c85528352818420805467ffffffffffffffff191667ffffffffffffffff8d1690811790915582519384018f905291830152606082018b905260808201524360a082015260c00160408051601f1981840301815282825280516020918201208c845267ffffffffffffffff8c169184019190915290820181905291506001600160a01b038b16908c907f3b39871a92b7d862700818d19fe9a2391ac67dab05207225de271751c511570f9060600160405180910390a35050505050505050505050565b60008681526001602052604080822080546001600160a01b031981166001600160a01b038a8116918217909355925191169283918a917f6ec74f357a0767aee452257973b2576cda349fa0d24adc05664f5ae0ec07603091a450505050505050565b80356001600160a01b038116811461030d57600080fd5b919050565b60008060006060848603121561032757600080fd5b83359250610337602085016102f6565b9150604084013590509250925092565b60006020828403121561035957600080fd5b5035919050565b60008083601f84011261037257600080fd5b50813567ffffffffffffffff81111561038a57600080fd5b6020830191508360208285010111156103a257600080fd5b9250929050565b60008060008060008060008060008060e08b8d0312156103c857600080fd5b8a3599506103d860208c016102f6565b985060408b0135975060608b013567ffffffffffffffff80821682146103fd57600080fd5b90975060808c0135908082111561041357600080fd5b61041f8e838f01610360565b909850965060a08d013591508082111561043857600080fd5b6104448e838f01610360565b909650945060c08d013591508082111561045d57600080fd5b5061046a8d828e01610360565b915080935050809150509295989b9194979a5092959850565b6000806000806000806080878903121561049c57600080fd5b863595506104ac602088016102f6565b9450604087013567ffffffffffffffff808211156104c957600080fd5b6104d58a838b01610360565b909650945060608901359150808211156104ee57600080fd5b506104fb89828a01610360565b979a969950949750929593949250505056fea26469706673582212207045076b80639a7d2e5274f3629a74e633fbec5e98cb0939ecaf3434617fa3c364736f6c63430008140033","opcodes":"PUSH1 0x80 PUSH1 0x40 MSTORE CALLVALUE DUP1 ISZERO PUSH2 0x10 JUMPI PUSH1 0x0 DUP1 REVERT JUMPDEST POP PUSH2 0x543 DUP1 PUSH2 0x20 PUSH1 0x0 CODECOPY PUSH1 0x0 RETURN INVALID PUSH1 0x80 PUSH1 0x40 MSTORE CALLVALUE DUP1 ISZERO PUSH2 0x10 JUMPI PUSH1 0x0 DUP1 REVERT JUMPDEST POP PUSH1 0x4 CALLDATASIZE LT PUSH2 0x57 JUMPI PUSH1 0x0 CALLDATALOAD PUSH1 0xE0 SHR DUP1 PUSH4 0xCFAF099 EQ PUSH2 0x5C JUMPI DUP1 PUSH4 0x6352211E EQ PUSH2 0x71 JUMPI DUP1 PUSH4 0x657CDF65 EQ PUSH2 0xB7 JUMPI DUP1 PUSH4 0x7407EBE3 EQ PUSH2 0x10A JUMPI DUP1 PUSH4 0xF659299B EQ PUSH2 0x11D JUMPI JUMPDEST PUSH1 0x0 DUP1 REVERT JUMPDEST PUSH2 0x6F PUSH2 0x6A CALLDATASIZE PUSH1 0x4 PUSH2 0x312 JUMP JUMPDEST PUSH2 0x130 JUMP JUMPDEST STOP JUMPDEST PUSH2 0x9A PUSH2 0x7F CALLDATASIZE PUSH1 0x4 PUSH2 0x347 JUMP JUMPDEST PUSH1 0x1 PUSH1 0x20 MSTORE PUSH1 0x0 SWAP1 DUP2 MSTORE PUSH1 0x40 SWAP1 KECCAK256 SLOAD PUSH1 0x1 PUSH1 0x1 PUSH1 0xA0 SHL SUB AND DUP2 JUMP JUMPDEST PUSH1 0x40 MLOAD PUSH1 0x1 PUSH1 0x1 PUSH1 0xA0 SHL SUB SWAP1 SWAP2 AND DUP2 MSTORE PUSH1 0x20 ADD JUMPDEST PUSH1 0x40 MLOAD DUP1 SWAP2 SUB SWAP1 RETURN JUMPDEST PUSH2 0xF1 PUSH2 0xC5 CALLDATASIZE PUSH1 0x4 PUSH2 0x312 JUMP JUMPDEST PUSH1 0x0 PUSH1 0x20 DUP2 DUP2 MSTORE SWAP4 DUP2 MSTORE PUSH1 0x40 DUP1 DUP3 KECCAK256 DUP6 MSTORE SWAP3 DUP2 MSTORE DUP3 DUP2 KECCAK256 SWAP1 SWAP4 MSTORE DUP3 MSTORE SWAP1 KECCAK256 SLOAD PUSH8 0xFFFFFFFFFFFFFFFF AND DUP2 JUMP JUMPDEST PUSH1 0x40 MLOAD PUSH8 0xFFFFFFFFFFFFFFFF SWAP1 SWAP2 AND DUP2 MSTORE PUSH1 0x20 ADD PUSH2 0xAE JUMP JUMPDEST PUSH2 0x6F PUSH2 0x118 CALLDATASIZE PUSH1 0x4 PUSH2 0x3A9 JUMP JUMPDEST PUSH2 0x1AF JUMP JUMPDEST PUSH2 0x6F PUSH2 0x12B CALLDATASIZE PUSH1 0x4 PUSH2 0x483 JUMP JUMPDEST PUSH2 0x294 JUMP JUMPDEST PUSH1 0x0 DUP4 DUP2 MSTORE PUSH1 0x20 DUP2 DUP2 MSTORE PUSH1 0x40 DUP1 DUP4 KECCAK256 PUSH1 0x1 PUSH1 0x1 PUSH1 0xA0 SHL SUB DUP7 AND DUP1 DUP6 MSTORE SWAP1 DUP4 MSTORE DUP2 DUP5 KECCAK256 DUP6 DUP6 MSTORE DUP4 MSTORE DUP2 DUP5 KECCAK256 DUP1 SLOAD PUSH8 0xFFFFFFFFFFFFFFFF NOT AND SWAP1 SSTORE DUP2 MLOAD DUP6 DUP2 MSTORE SWAP3 DUP4 ADD DUP5 SWAP1 MSTORE SWAP1 DUP3 ADD SWAP3 SWAP1 SWAP3 MSTORE DUP5 SWAP1 PUSH32 0x3B39871A92B7D862700818D19FE9A2391AC67DAB05207225DE271751C511570F SWAP1 PUSH1 0x60 ADD PUSH1 0x40 MLOAD DUP1 SWAP2 SUB SWAP1 LOG3 POP POP POP JUMP JUMPDEST PUSH1 0x0 DUP11 DUP2 MSTORE PUSH1 0x20 DUP2 DUP2 MSTORE PUSH1 0x40 DUP1 DUP4 KECCAK256 PUSH1 0x1 PUSH1 0x1 PUSH1 0xA0 SHL SUB DUP14 AND DUP1 DUP6 MSTORE SWAP1 DUP4 MSTORE DUP2 DUP5 KECCAK256 DUP13 DUP6 MSTORE DUP4 MSTORE DUP2 DUP5 KECCAK256 DUP1 SLOAD PUSH8 0xFFFFFFFFFFFFFFFF NOT AND PUSH8 0xFFFFFFFFFFFFFFFF DUP14 AND SWAP1 DUP2 OR SWAP1 SWAP2 SSTORE DUP3 MLOAD SWAP4 DUP5 ADD DUP16 SWAP1 MSTORE SWAP2 DUP4 ADD MSTORE PUSH1 0x60 DUP3 ADD DUP12 SWAP1 MSTORE PUSH1 0x80 DUP3 ADD MSTORE NUMBER PUSH1 0xA0 DUP3 ADD MSTORE PUSH1 0xC0 ADD PUSH1 0x40 DUP1 MLOAD PUSH1 0x1F NOT DUP2 DUP5 SUB ADD DUP2 MSTORE DUP3 DUP3 MSTORE DUP1 MLOAD PUSH1 0x20 SWAP2 DUP3 ADD KECCAK256 DUP13 DUP5 MSTORE PUSH8 0xFFFFFFFFFFFFFFFF DUP13 AND SWAP2 DUP5 ADD SWAP2 SWAP1 SWAP2 MSTORE SWAP1 DUP3 ADD DUP2 SWAP1 MSTORE SWAP2 POP PUSH1 0x1 PUSH1 0x1 PUSH1 0xA0 SHL SUB DUP12 AND SWAP1 DUP13 SWAP1 PUSH32 0x3B39871A92B7D862700818D19FE9A2391AC67DAB05207225DE271751C511570F SWAP1 PUSH1 0x60 ADD PUSH1 0x40 MLOAD DUP1 SWAP2 SUB SWAP1 LOG3 POP POP POP POP POP POP POP POP POP POP POP JUMP JUMPDEST PUSH1 0x0 DUP7 DUP2 MSTORE PUSH1 0x1 PUSH1 0x20 MSTORE PUSH1 0x40 DUP1 DUP3 KECCAK256 DUP1 SLOAD PUSH1 0x1 PUSH1 0x1 PUSH1 0xA0 SHL SUB NOT DUP2 AND PUSH1 0x1 PUSH1 0x1 PUSH1 0xA0 SHL SUB DUP11 DUP2 AND SWAP2 DUP3 OR SWAP1 SWAP4 SSTORE SWAP3 MLOAD SWAP2 AND SWAP3 DUP4 SWAP2 DUP11 SWAP2 PUSH32 0x6EC74F357A0767AEE452257973B2576CDA349FA0D24ADC05664F5AE0EC076030 SWAP2 LOG4 POP POP POP POP POP POP POP JUMP JUMPDEST DUP1 CALLDATALOAD PUSH1 0x1 PUSH1 0x1 PUSH1 0xA0 SHL SUB DUP2 AND DUP2 EQ PUSH2 0x30D JUMPI PUSH1 0x0 DUP1 REVERT JUMPDEST SWAP2 SWAP1 POP JUMP JUMPDEST PUSH1 0x0 DUP1 PUSH1 0x0 PUSH1 0x60 DUP5 DUP7 SUB SLT ISZERO PUSH2 0x327 JUMPI PUSH1 0x0 DUP1 REVERT JUMPDEST DUP4 CALLDATALOAD SWAP3 POP PUSH2 0x337 PUSH1 0x20 DUP6 ADD PUSH2 0x2F6 JUMP JUMPDEST SWAP2 POP PUSH1 0x40 DUP5 ADD CALLDATALOAD SWAP1 POP SWAP3 POP SWAP3 POP SWAP3 JUMP JUMPDEST PUSH1 0x0 PUSH1 0x20 DUP3 DUP5 SUB SLT ISZERO PUSH2 0x359 JUMPI PUSH1 0x0 DUP1 REVERT JUMPDEST POP CALLDATALOAD SWAP2 SWAP1 POP JUMP JUMPDEST PUSH1 0x0 DUP1 DUP4 PUSH1 0x1F DUP5 ADD SLT PUSH2 0x372 JUMPI PUSH1 0x0 DUP1 REVERT JUMPDEST POP DUP2 CALLDATALOAD PUSH8 0xFFFFFFFFFFFFFFFF DUP2 GT ISZERO PUSH2 0x38A JUMPI PUSH1 0x0 DUP1 REVERT JUMPDEST PUSH1 0x20 DUP4 ADD SWAP2 POP DUP4 PUSH1 0x20 DUP3 DUP6 ADD ADD GT ISZERO PUSH2 0x3A2 JUMPI PUSH1 0x0 DUP1 REVERT JUMPDEST SWAP3 POP SWAP3 SWAP1 POP JUMP JUMPDEST PUSH1 0x0 DUP1 PUSH1 0x0 DUP1 PUSH1 0x0 DUP1 PUSH1 0x0 DUP1 PUSH1 0x0 DUP1 PUSH1 0xE0 DUP12 DUP14 SUB SLT ISZERO PUSH2 0x3C8 JUMPI PUSH1 0x0 DUP1 REVERT JUMPDEST DUP11 CALLDATALOAD SWAP10 POP PUSH2 0x3D8 PUSH1 0x20 DUP13 ADD PUSH2 0x2F6 JUMP JUMPDEST SWAP9 POP PUSH1 0x40 DUP12 ADD CALLDATALOAD SWAP8 POP PUSH1 0x60 DUP12 ADD CALLDATALOAD PUSH8 0xFFFFFFFFFFFFFFFF DUP1 DUP3 AND DUP3 EQ PUSH2 0x3FD JUMPI PUSH1 0x0 DUP1 REVERT JUMPDEST SWAP1 SWAP8 POP PUSH1 0x80 DUP13 ADD CALLDATALOAD SWAP1 DUP1 DUP3 GT ISZERO PUSH2 0x413 JUMPI PUSH1 0x0 DUP1 REVERT JUMPDEST PUSH2 0x41F DUP15 DUP4 DUP16 ADD PUSH2 0x360 JUMP JUMPDEST SWAP1 SWAP9 POP SWAP7 POP PUSH1 0xA0 DUP14 ADD CALLDATALOAD SWAP2 POP DUP1 DUP3 GT ISZERO PUSH2 0x438 JUMPI PUSH1 0x0 DUP1 REVERT JUMPDEST PUSH2 0x444 DUP15 DUP4 DUP16 ADD PUSH2 0x360 JUMP JUMPDEST SWAP1 SWAP7 POP SWAP5 POP PUSH1 0xC0 DUP14 ADD CALLDATALOAD SWAP2 POP DUP1 DUP3 GT ISZERO PUSH2 0x45D JUMPI PUSH1 0x0 DUP1 REVERT JUMPDEST POP PUSH2 0x46A DUP14 DUP3 DUP15 ADD PUSH2 0x360 JUMP JUMPDEST SWAP2 POP DUP1 SWAP4 POP POP DUP1 SWAP2 POP POP SWAP3 SWAP6 SWAP9 SWAP12 SWAP2 SWAP5 SWAP8 SWAP11 POP SWAP3 SWAP6 SWAP9 POP JUMP JUMPDEST PUSH1 0x0 DUP1 PUSH1 0x0 DUP1 PUSH1 0x0 DUP1 PUSH1 0x80 DUP8 DUP10 SUB SLT ISZERO PUSH2 0x49C JUMPI PUSH1 0x0 DUP1 REVERT JUMPDEST DUP7 CALLDATALOAD SWAP6 POP PUSH2 0x4AC PUSH1 0x20 DUP9 ADD PUSH2 0x2F6 JUMP JUMPDEST SWAP5 POP PUSH1 0x40 DUP8 ADD CALLDATALOAD PUSH8 0xFFFFFFFFFFFFFFFF DUP1 DUP3 GT ISZERO PUSH2 0x4C9 JUMPI PUSH1 0x0 DUP1 REVERT JUMPDEST PUSH2 0x4D5 DUP11 DUP4 DUP12 ADD PUSH2 0x360 JUMP JUMPDEST SWAP1 SWAP7 POP SWAP5 POP PUSH1 0x60 DUP10 ADD CALLDATALOAD SWAP2 POP DUP1 DUP3 GT ISZERO PUSH2 0x4EE JUMPI PUSH1 0x0 DUP1 REVERT JUMPDEST POP PUSH2 0x4FB DUP10 DUP3 DUP11 ADD PUSH2 0x360 JUMP JUMPDEST SWAP8 SWAP11 SWAP7 SWAP10 POP SWAP5 SWAP8 POP SWAP3 SWAP6 SWAP4 SWAP5 SWAP3 POP POP POP JUMP INVALID LOG2 PUSH5 0x6970667358 0x22 SLT KECCAK256 PUSH17 0x45076B80639A7D2E5274F3629A74E633FB 0xEC 0x5E SWAP9 0xCB MULMOD CODECOPY 0xEC 0xAF CALLVALUE CALLVALUE PUSH2 0x7FA3 0xC3 PUSH5 0x736F6C6343 STOP ADDMOD EQ STOP CALLER "},"methodIdentifiers":{"grantCapability(uint256,address,bytes32,uint64,bytes,bytes,bytes)":"7407ebe3","ownerOf(uint256)":"6352211e","revokeCapability(uint256,address,bytes32)":"0cfaf099","transferOwnerWithDID(uint256,address,bytes,bytes)":"f659299b","ttlByScope(uint256,address,bytes32)":"657cdf65"}}}}}