{
  "_format": "hh-sol-artifact-1",
  "contractName": "QriptoCENT",
  "sourceName": "contracts/QCT.sol",
  "abi": [
    {
      "inputs": [
        {
          "internalType": "address",
          "name": "initialOwner",
          "type": "address"
        }
      ],
      "stateMutability": "nonpayable",
      "type": "constructor"
    },
    {
      "inputs": [
        {
          "internalType": "address",
          "name": "spender",
          "type": "address"
        },
        {
          "internalType": "uint256",
          "name": "allowance",
          "type": "uint256"
        },
        {
          "internalType": "uint256",
          "name": "needed",
          "type": "uint256"
        }
      ],
      "name": "ERC20InsufficientAllowance",
      "type": "error"
    },
    {
      "inputs": [
        {
          "internalType": "address",
          "name": "sender",
          "type": "address"
        },
        {
          "internalType": "uint256",
          "name": "balance",
          "type": "uint256"
        },
        {
          "internalType": "uint256",
          "name": "needed",
          "type": "uint256"
        }
      ],
      "name": "ERC20InsufficientBalance",
      "type": "error"
    },
    {
      "inputs": [
        {
          "internalType": "address",
          "name": "approver",
          "type": "address"
        }
      ],
      "name": "ERC20InvalidApprover",
      "type": "error"
    },
    {
      "inputs": [
        {
          "internalType": "address",
          "name": "receiver",
          "type": "address"
        }
      ],
      "name": "ERC20InvalidReceiver",
      "type": "error"
    },
    {
      "inputs": [
        {
          "internalType": "address",
          "name": "sender",
          "type": "address"
        }
      ],
      "name": "ERC20InvalidSender",
      "type": "error"
    },
    {
      "inputs": [
        {
          "internalType": "address",
          "name": "spender",
          "type": "address"
        }
      ],
      "name": "ERC20InvalidSpender",
      "type": "error"
    },
    {
      "inputs": [
        {
          "internalType": "address",
          "name": "owner",
          "type": "address"
        }
      ],
      "name": "OwnableInvalidOwner",
      "type": "error"
    },
    {
      "inputs": [
        {
          "internalType": "address",
          "name": "account",
          "type": "address"
        }
      ],
      "name": "OwnableUnauthorizedAccount",
      "type": "error"
    },
    {
      "anonymous": false,
      "inputs": [
        {
          "indexed": true,
          "internalType": "address",
          "name": "owner",
          "type": "address"
        },
        {
          "indexed": true,
          "internalType": "address",
          "name": "spender",
          "type": "address"
        },
        {
          "indexed": false,
          "internalType": "uint256",
          "name": "value",
          "type": "uint256"
        }
      ],
      "name": "Approval",
      "type": "event"
    },
    {
      "anonymous": false,
      "inputs": [
        {
          "indexed": true,
          "internalType": "address",
          "name": "oldBridge",
          "type": "address"
        },
        {
          "indexed": true,
          "internalType": "address",
          "name": "newBridge",
          "type": "address"
        }
      ],
      "name": "BridgeUpdated",
      "type": "event"
    },
    {
      "anonymous": false,
      "inputs": [
        {
          "indexed": true,
          "internalType": "address",
          "name": "previousOwner",
          "type": "address"
        },
        {
          "indexed": true,
          "internalType": "address",
          "name": "newOwner",
          "type": "address"
        }
      ],
      "name": "OwnershipTransferred",
      "type": "event"
    },
    {
      "anonymous": false,
      "inputs": [
        {
          "indexed": true,
          "internalType": "address",
          "name": "from",
          "type": "address"
        },
        {
          "indexed": false,
          "internalType": "uint256",
          "name": "amount",
          "type": "uint256"
        },
        {
          "indexed": false,
          "internalType": "string",
          "name": "targetChain",
          "type": "string"
        },
        {
          "indexed": false,
          "internalType": "string",
          "name": "targetAddress",
          "type": "string"
        }
      ],
      "name": "TokensBurned",
      "type": "event"
    },
    {
      "anonymous": false,
      "inputs": [
        {
          "indexed": true,
          "internalType": "address",
          "name": "to",
          "type": "address"
        },
        {
          "indexed": false,
          "internalType": "uint256",
          "name": "amount",
          "type": "uint256"
        },
        {
          "indexed": false,
          "internalType": "string",
          "name": "sourceChain",
          "type": "string"
        },
        {
          "indexed": false,
          "internalType": "string",
          "name": "sourceTxHash",
          "type": "string"
        }
      ],
      "name": "TokensMinted",
      "type": "event"
    },
    {
      "anonymous": false,
      "inputs": [
        {
          "indexed": true,
          "internalType": "address",
          "name": "from",
          "type": "address"
        },
        {
          "indexed": true,
          "internalType": "address",
          "name": "to",
          "type": "address"
        },
        {
          "indexed": false,
          "internalType": "uint256",
          "name": "value",
          "type": "uint256"
        }
      ],
      "name": "Transfer",
      "type": "event"
    },
    {
      "inputs": [],
      "name": "MAX_SUPPLY",
      "outputs": [
        {
          "internalType": "uint256",
          "name": "",
          "type": "uint256"
        }
      ],
      "stateMutability": "view",
      "type": "function"
    },
    {
      "inputs": [
        {
          "internalType": "address",
          "name": "owner",
          "type": "address"
        },
        {
          "internalType": "address",
          "name": "spender",
          "type": "address"
        }
      ],
      "name": "allowance",
      "outputs": [
        {
          "internalType": "uint256",
          "name": "",
          "type": "uint256"
        }
      ],
      "stateMutability": "view",
      "type": "function"
    },
    {
      "inputs": [
        {
          "internalType": "address",
          "name": "spender",
          "type": "address"
        },
        {
          "internalType": "uint256",
          "name": "value",
          "type": "uint256"
        }
      ],
      "name": "approve",
      "outputs": [
        {
          "internalType": "bool",
          "name": "",
          "type": "bool"
        }
      ],
      "stateMutability": "nonpayable",
      "type": "function"
    },
    {
      "inputs": [
        {
          "internalType": "address",
          "name": "account",
          "type": "address"
        }
      ],
      "name": "balanceOf",
      "outputs": [
        {
          "internalType": "uint256",
          "name": "",
          "type": "uint256"
        }
      ],
      "stateMutability": "view",
      "type": "function"
    },
    {
      "inputs": [],
      "name": "bridge",
      "outputs": [
        {
          "internalType": "address",
          "name": "",
          "type": "address"
        }
      ],
      "stateMutability": "view",
      "type": "function"
    },
    {
      "inputs": [
        {
          "internalType": "uint256",
          "name": "amount",
          "type": "uint256"
        },
        {
          "internalType": "string",
          "name": "targetChain",
          "type": "string"
        },
        {
          "internalType": "string",
          "name": "targetAddress",
          "type": "string"
        }
      ],
      "name": "bridgeBurn",
      "outputs": [],
      "stateMutability": "nonpayable",
      "type": "function"
    },
    {
      "inputs": [
        {
          "internalType": "address",
          "name": "to",
          "type": "address"
        },
        {
          "internalType": "uint256",
          "name": "amount",
          "type": "uint256"
        },
        {
          "internalType": "string",
          "name": "sourceChain",
          "type": "string"
        },
        {
          "internalType": "string",
          "name": "sourceTxHash",
          "type": "string"
        }
      ],
      "name": "bridgeMint",
      "outputs": [],
      "stateMutability": "nonpayable",
      "type": "function"
    },
    {
      "inputs": [
        {
          "internalType": "uint256",
          "name": "value",
          "type": "uint256"
        }
      ],
      "name": "burn",
      "outputs": [],
      "stateMutability": "nonpayable",
      "type": "function"
    },
    {
      "inputs": [
        {
          "internalType": "address",
          "name": "account",
          "type": "address"
        },
        {
          "internalType": "uint256",
          "name": "value",
          "type": "uint256"
        }
      ],
      "name": "burnFrom",
      "outputs": [],
      "stateMutability": "nonpayable",
      "type": "function"
    },
    {
      "inputs": [],
      "name": "decimals",
      "outputs": [
        {
          "internalType": "uint8",
          "name": "",
          "type": "uint8"
        }
      ],
      "stateMutability": "view",
      "type": "function"
    },
    {
      "inputs": [],
      "name": "name",
      "outputs": [
        {
          "internalType": "string",
          "name": "",
          "type": "string"
        }
      ],
      "stateMutability": "view",
      "type": "function"
    },
    {
      "inputs": [],
      "name": "owner",
      "outputs": [
        {
          "internalType": "address",
          "name": "",
          "type": "address"
        }
      ],
      "stateMutability": "view",
      "type": "function"
    },
    {
      "inputs": [],
      "name": "renounceOwnership",
      "outputs": [],
      "stateMutability": "nonpayable",
      "type": "function"
    },
    {
      "inputs": [
        {
          "internalType": "address",
          "name": "_bridge",
          "type": "address"
        }
      ],
      "name": "setBridge",
      "outputs": [],
      "stateMutability": "nonpayable",
      "type": "function"
    },
    {
      "inputs": [],
      "name": "symbol",
      "outputs": [
        {
          "internalType": "string",
          "name": "",
          "type": "string"
        }
      ],
      "stateMutability": "view",
      "type": "function"
    },
    {
      "inputs": [],
      "name": "tokenInfo",
      "outputs": [
        {
          "internalType": "string",
          "name": "name_",
          "type": "string"
        },
        {
          "internalType": "string",
          "name": "symbol_",
          "type": "string"
        },
        {
          "internalType": "uint8",
          "name": "decimals_",
          "type": "uint8"
        },
        {
          "internalType": "uint256",
          "name": "maxSupply_",
          "type": "uint256"
        }
      ],
      "stateMutability": "pure",
      "type": "function"
    },
    {
      "inputs": [],
      "name": "totalSupply",
      "outputs": [
        {
          "internalType": "uint256",
          "name": "",
          "type": "uint256"
        }
      ],
      "stateMutability": "view",
      "type": "function"
    },
    {
      "inputs": [
        {
          "internalType": "address",
          "name": "to",
          "type": "address"
        },
        {
          "internalType": "uint256",
          "name": "value",
          "type": "uint256"
        }
      ],
      "name": "transfer",
      "outputs": [
        {
          "internalType": "bool",
          "name": "",
          "type": "bool"
        }
      ],
      "stateMutability": "nonpayable",
      "type": "function"
    },
    {
      "inputs": [
        {
          "internalType": "address",
          "name": "from",
          "type": "address"
        },
        {
          "internalType": "address",
          "name": "to",
          "type": "address"
        },
        {
          "internalType": "uint256",
          "name": "value",
          "type": "uint256"
        }
      ],
      "name": "transferFrom",
      "outputs": [
        {
          "internalType": "bool",
          "name": "",
          "type": "bool"
        }
      ],
      "stateMutability": "nonpayable",
      "type": "function"
    },
    {
      "inputs": [
        {
          "internalType": "address",
          "name": "newOwner",
          "type": "address"
        }
      ],
      "name": "transferOwnership",
      "outputs": [],
      "stateMutability": "nonpayable",
      "type": "function"
    }
  ],
  "bytecode": "0x60806040523480156200001157600080fd5b506040516200146f3803806200146f8339810160408190526200003491620002b5565b806040518060400160405280600a815260200169145c9a5c1d1bd0d1539560b21b815250604051806040016040528060038152602001621450d560ea1b81525081600390816200008591906200038c565b5060046200009482826200038c565b5050506001600160a01b038116620000c757604051631e4fbdf760e01b8152600060048201526024015b60405180910390fd5b620000d281620000f2565b50620000eb816b014adf4b7320334b9000000062000144565b5062000480565b600580546001600160a01b038381166001600160a01b0319831681179093556040519116919082907f8be0079c531659141344cd1fd0a4f28419497f9722a3daafe3b4186f6b6457e090600090a35050565b6001600160a01b038216620001705760405163ec442f0560e01b815260006004820152602401620000be565b6200017e6000838362000182565b5050565b6001600160a01b038316620001b1578060026000828254620001a5919062000458565b90915550620002259050565b6001600160a01b03831660009081526020819052604090205481811015620002065760405163391434e360e21b81526001600160a01b03851660048201526024810182905260448101839052606401620000be565b6001600160a01b03841660009081526020819052604090209082900390555b6001600160a01b038216620002435760028054829003905562000262565b6001600160a01b03821660009081526020819052604090208054820190555b816001600160a01b0316836001600160a01b03167fddf252ad1be2c89b69c2b068fc378daa952ba7f163c4a11628f55a4df523b3ef83604051620002a891815260200190565b60405180910390a3505050565b600060208284031215620002c857600080fd5b81516001600160a01b0381168114620002e057600080fd5b9392505050565b634e487b7160e01b600052604160045260246000fd5b600181811c908216806200031257607f821691505b6020821081036200033357634e487b7160e01b600052602260045260246000fd5b50919050565b601f8211156200038757600081815260208120601f850160051c81016020861015620003625750805b601f850160051c820191505b8181101562000383578281556001016200036e565b5050505b505050565b81516001600160401b03811115620003a857620003a8620002e7565b620003c081620003b98454620002fd565b8462000339565b602080601f831160018114620003f85760008415620003df5750858301515b600019600386901b1c1916600185901b17855562000383565b600085815260208120601f198616915b82811015620004295788860151825594840194600190910190840162000408565b5085821015620004485787850151600019600388901b60f8161c191681555b5050505050600190811b01905550565b808201808211156200047a57634e487b7160e01b600052601160045260246000fd5b92915050565b610fdf80620004906000396000f3fe608060405234801561001057600080fd5b506004361061012c5760003560e01c806379cc6790116100ad578063c11c798911610071578063c11c7989146102c0578063cb081269146102d3578063dd62ed3e146102e6578063e78cea921461031f578063f2fde38b1461033257600080fd5b806379cc67901461025a5780638da5cb5b1461026d5780638dd148021461029257806395d89b41146102a5578063a9059cbb146102ad57600080fd5b806332cb6b0c116100f457806332cb6b0c146101a657806342966c68146101b95780636addb663146101ce57806370a0823114610229578063715018a61461025257600080fd5b806306fdde0314610131578063095ea7b31461014f57806318160ddd1461017257806323b872dd14610184578063313ce56714610197575b600080fd5b610139610345565b6040516101469190610c4c565b60405180910390f35b61016261015d366004610c82565b6103d7565b6040519015158152602001610146565b6002545b604051908152602001610146565b610162610192366004610cac565b6103f1565b60405160128152602001610146565b6101766b033b2e3c9fd0803ce800000081565b6101cc6101c7366004610ce8565b610415565b005b604080518082018252600a815269145c9a5c1d1bd0d1539560b21b602080830191909152825180840190935260038352621450d560ea1b908301529060126b033b2e3c9fd0803ce80000006040516101469493929190610d01565b610176610237366004610d3d565b6001600160a01b031660009081526020819052604090205490565b6101cc610422565b6101cc610268366004610c82565b610436565b6005546001600160a01b03165b6040516001600160a01b039091168152602001610146565b6101cc6102a0366004610d3d565b61044f565b61013961050f565b6101626102bb366004610c82565b61051e565b6101cc6102ce366004610dfb565b61052c565b6101cc6102e1366004610e68565b61067d565b6101766102f4366004610ee6565b6001600160a01b03918216600090815260016020908152604080832093909416825291909152205490565b60065461027a906001600160a01b031681565b6101cc610340366004610d3d565b6107f1565b60606003805461035490610f19565b80601f016020809104026020016040519081016040528092919081815260200182805461038090610f19565b80156103cd5780601f106103a2576101008083540402835291602001916103cd565b820191906000526020600020905b8154815290600101906020018083116103b057829003601f168201915b5050505050905090565b6000336103e581858561082c565b60019150505b92915050565b6000336103ff85828561083e565b61040a8585856108bd565b506001949350505050565b61041f338261091c565b50565b61042a610952565b610434600061097f565b565b61044182338361083e565b61044b828261091c565b5050565b610457610952565b6001600160a01b0381166104bd5760405162461bcd60e51b815260206004820152602260248201527f5143543a204272696467652063616e6e6f74206265207a65726f206164647265604482015261737360f01b60648201526084015b60405180910390fd5b600680546001600160a01b038381166001600160a01b0319831681179093556040519116919082907faae9beddccf584528e87b66c6ff2563825c8a1433305b8a656e9b5f9bf39049990600090a35050565b60606004805461035490610f19565b6000336103e58185856108bd565b600083116105875760405162461bcd60e51b815260206004820152602260248201527f5143543a20416d6f756e74206d7573742062652067726561746572207468616e604482015261020360f41b60648201526084016104b4565b60008251116105d85760405162461bcd60e51b815260206004820152601a60248201527f5143543a2054617267657420636861696e20726571756972656400000000000060448201526064016104b4565b60008151116106295760405162461bcd60e51b815260206004820152601c60248201527f5143543a2054617267657420616464726573732072657175697265640000000060448201526064016104b4565b610633338461091c565b336001600160a01b03167f2a066751a36c75b553499234e316ad38eb2c4501f2d16bf7cb8245bea536fe8184848460405161067093929190610f53565b60405180910390a2505050565b6006546001600160a01b031633146106d75760405162461bcd60e51b815260206004820152601960248201527f5143543a204f6e6c79206272696467652063616e206d696e740000000000000060448201526064016104b4565b6001600160a01b03841661072d5760405162461bcd60e51b815260206004820152601960248201527f5143543a204d696e7420746f207a65726f20616464726573730000000000000060448201526064016104b4565b6b033b2e3c9fd0803ce80000008361074460025490565b61074e9190610f88565b111561079c5760405162461bcd60e51b815260206004820152601860248201527f5143543a204d617820737570706c79206578636565646564000000000000000060448201526064016104b4565b6107a684846109d1565b836001600160a01b03167f441baf84b3df12a08f0646a6bdcb06a4d29f3042b02814d1c2f6e945bbeffdfe8484846040516107e393929190610f53565b60405180910390a250505050565b6107f9610952565b6001600160a01b03811661082357604051631e4fbdf760e01b8152600060048201526024016104b4565b61041f8161097f565b6108398383836001610a07565b505050565b6001600160a01b038381166000908152600160209081526040808320938616835292905220546000198110156108b757818110156108a857604051637dc7a0d960e11b81526001600160a01b038416600482015260248101829052604481018390526064016104b4565b6108b784848484036000610a07565b50505050565b6001600160a01b0383166108e757604051634b637e8f60e11b8152600060048201526024016104b4565b6001600160a01b0382166109115760405163ec442f0560e01b8152600060048201526024016104b4565b610839838383610adc565b6001600160a01b03821661094657604051634b637e8f60e11b8152600060048201526024016104b4565b61044b82600083610adc565b6005546001600160a01b031633146104345760405163118cdaa760e01b81523360048201526024016104b4565b600580546001600160a01b038381166001600160a01b0319831681179093556040519116919082907f8be0079c531659141344cd1fd0a4f28419497f9722a3daafe3b4186f6b6457e090600090a35050565b6001600160a01b0382166109fb5760405163ec442f0560e01b8152600060048201526024016104b4565b61044b60008383610adc565b6001600160a01b038416610a315760405163e602df0560e01b8152600060048201526024016104b4565b6001600160a01b038316610a5b57604051634a1406b160e11b8152600060048201526024016104b4565b6001600160a01b03808516600090815260016020908152604080832093871683529290522082905580156108b757826001600160a01b0316846001600160a01b03167f8c5be1e5ebec7d5bd14f71427d1e84f3dd0314c0f7b2291e5b200ac8c7c3b92584604051610ace91815260200190565b60405180910390a350505050565b6001600160a01b038316610b07578060026000828254610afc9190610f88565b90915550610b799050565b6001600160a01b03831660009081526020819052604090205481811015610b5a5760405163391434e360e21b81526001600160a01b038516600482015260248101829052604481018390526064016104b4565b6001600160a01b03841660009081526020819052604090209082900390555b6001600160a01b038216610b9557600280548290039055610bb4565b6001600160a01b03821660009081526020819052604090208054820190555b816001600160a01b0316836001600160a01b03167fddf252ad1be2c89b69c2b068fc378daa952ba7f163c4a11628f55a4df523b3ef83604051610bf991815260200190565b60405180910390a3505050565b6000815180845260005b81811015610c2c57602081850181015186830182015201610c10565b506000602082860101526020601f19601f83011685010191505092915050565b602081526000610c5f6020830184610c06565b9392505050565b80356001600160a01b0381168114610c7d57600080fd5b919050565b60008060408385031215610c9557600080fd5b610c9e83610c66565b946020939093013593505050565b600080600060608486031215610cc157600080fd5b610cca84610c66565b9250610cd860208501610c66565b9150604084013590509250925092565b600060208284031215610cfa57600080fd5b5035919050565b608081526000610d146080830187610c06565b8281036020840152610d268187610c06565b60ff95909516604084015250506060015292915050565b600060208284031215610d4f57600080fd5b610c5f82610c66565b634e487b7160e01b600052604160045260246000fd5b600082601f830112610d7f57600080fd5b813567ffffffffffffffff80821115610d9a57610d9a610d58565b604051601f8301601f19908116603f01168101908282118183101715610dc257610dc2610d58565b81604052838152866020858801011115610ddb57600080fd5b836020870160208301376000602085830101528094505050505092915050565b600080600060608486031215610e1057600080fd5b83359250602084013567ffffffffffffffff80821115610e2f57600080fd5b610e3b87838801610d6e565b93506040860135915080821115610e5157600080fd5b50610e5e86828701610d6e565b9150509250925092565b60008060008060808587031215610e7e57600080fd5b610e8785610c66565b935060208501359250604085013567ffffffffffffffff80821115610eab57600080fd5b610eb788838901610d6e565b93506060870135915080821115610ecd57600080fd5b50610eda87828801610d6e565b91505092959194509250565b60008060408385031215610ef957600080fd5b610f0283610c66565b9150610f1060208401610c66565b90509250929050565b600181811c90821680610f2d57607f821691505b602082108103610f4d57634e487b7160e01b600052602260045260246000fd5b50919050565b838152606060208201526000610f6c6060830185610c06565b8281036040840152610f7e8185610c06565b9695505050505050565b808201808211156103eb57634e487b7160e01b600052601160045260246000fdfea2646970667358221220903e67104a4269ffeed3ee56b70e6e363e6363f13a801b04f457c888d6115ad164736f6c63430008140033",
  "linkReferences": {},
  "deployedLinkReferences": {}
}