{
  "_format": "hh-sol-artifact-1",
  "contractName": "QriptoCENT",
  "sourceName": "contracts/QCT.sol",
  "abi": [
    {
      "inputs": [
        {
          "internalType": "address",
          "name": "initialOwner",
          "type": "address"
        }
      ],
      "stateMutability": "nonpayable",
      "type": "constructor"
    },
    {
      "inputs": [
        {
          "internalType": "address",
          "name": "spender",
          "type": "address"
        },
        {
          "internalType": "uint256",
          "name": "allowance",
          "type": "uint256"
        },
        {
          "internalType": "uint256",
          "name": "needed",
          "type": "uint256"
        }
      ],
      "name": "ERC20InsufficientAllowance",
      "type": "error"
    },
    {
      "inputs": [
        {
          "internalType": "address",
          "name": "sender",
          "type": "address"
        },
        {
          "internalType": "uint256",
          "name": "balance",
          "type": "uint256"
        },
        {
          "internalType": "uint256",
          "name": "needed",
          "type": "uint256"
        }
      ],
      "name": "ERC20InsufficientBalance",
      "type": "error"
    },
    {
      "inputs": [
        {
          "internalType": "address",
          "name": "approver",
          "type": "address"
        }
      ],
      "name": "ERC20InvalidApprover",
      "type": "error"
    },
    {
      "inputs": [
        {
          "internalType": "address",
          "name": "receiver",
          "type": "address"
        }
      ],
      "name": "ERC20InvalidReceiver",
      "type": "error"
    },
    {
      "inputs": [
        {
          "internalType": "address",
          "name": "sender",
          "type": "address"
        }
      ],
      "name": "ERC20InvalidSender",
      "type": "error"
    },
    {
      "inputs": [
        {
          "internalType": "address",
          "name": "spender",
          "type": "address"
        }
      ],
      "name": "ERC20InvalidSpender",
      "type": "error"
    },
    {
      "inputs": [
        {
          "internalType": "address",
          "name": "owner",
          "type": "address"
        }
      ],
      "name": "OwnableInvalidOwner",
      "type": "error"
    },
    {
      "inputs": [
        {
          "internalType": "address",
          "name": "account",
          "type": "address"
        }
      ],
      "name": "OwnableUnauthorizedAccount",
      "type": "error"
    },
    {
      "anonymous": false,
      "inputs": [
        {
          "indexed": true,
          "internalType": "address",
          "name": "owner",
          "type": "address"
        },
        {
          "indexed": true,
          "internalType": "address",
          "name": "spender",
          "type": "address"
        },
        {
          "indexed": false,
          "internalType": "uint256",
          "name": "value",
          "type": "uint256"
        }
      ],
      "name": "Approval",
      "type": "event"
    },
    {
      "anonymous": false,
      "inputs": [
        {
          "indexed": true,
          "internalType": "address",
          "name": "oldBridge",
          "type": "address"
        },
        {
          "indexed": true,
          "internalType": "address",
          "name": "newBridge",
          "type": "address"
        }
      ],
      "name": "BridgeUpdated",
      "type": "event"
    },
    {
      "anonymous": false,
      "inputs": [
        {
          "indexed": true,
          "internalType": "address",
          "name": "previousOwner",
          "type": "address"
        },
        {
          "indexed": true,
          "internalType": "address",
          "name": "newOwner",
          "type": "address"
        }
      ],
      "name": "OwnershipTransferred",
      "type": "event"
    },
    {
      "anonymous": false,
      "inputs": [
        {
          "indexed": true,
          "internalType": "address",
          "name": "oldReserve",
          "type": "address"
        },
        {
          "indexed": true,
          "internalType": "address",
          "name": "newReserve",
          "type": "address"
        }
      ],
      "name": "ReserveUpdated",
      "type": "event"
    },
    {
      "anonymous": false,
      "inputs": [
        {
          "indexed": true,
          "internalType": "address",
          "name": "from",
          "type": "address"
        },
        {
          "indexed": false,
          "internalType": "uint256",
          "name": "amount",
          "type": "uint256"
        },
        {
          "indexed": false,
          "internalType": "string",
          "name": "targetChain",
          "type": "string"
        },
        {
          "indexed": false,
          "internalType": "string",
          "name": "targetAddress",
          "type": "string"
        }
      ],
      "name": "TokensBurned",
      "type": "event"
    },
    {
      "anonymous": false,
      "inputs": [
        {
          "indexed": true,
          "internalType": "address",
          "name": "to",
          "type": "address"
        },
        {
          "indexed": false,
          "internalType": "uint256",
          "name": "amount",
          "type": "uint256"
        },
        {
          "indexed": false,
          "internalType": "string",
          "name": "sourceChain",
          "type": "string"
        },
        {
          "indexed": false,
          "internalType": "string",
          "name": "sourceTxHash",
          "type": "string"
        }
      ],
      "name": "TokensMinted",
      "type": "event"
    },
    {
      "anonymous": false,
      "inputs": [
        {
          "indexed": true,
          "internalType": "address",
          "name": "from",
          "type": "address"
        },
        {
          "indexed": true,
          "internalType": "address",
          "name": "to",
          "type": "address"
        },
        {
          "indexed": false,
          "internalType": "uint256",
          "name": "value",
          "type": "uint256"
        }
      ],
      "name": "Transfer",
      "type": "event"
    },
    {
      "inputs": [],
      "name": "MAX_SUPPLY",
      "outputs": [
        {
          "internalType": "uint256",
          "name": "",
          "type": "uint256"
        }
      ],
      "stateMutability": "view",
      "type": "function"
    },
    {
      "inputs": [
        {
          "internalType": "address",
          "name": "owner",
          "type": "address"
        },
        {
          "internalType": "address",
          "name": "spender",
          "type": "address"
        }
      ],
      "name": "allowance",
      "outputs": [
        {
          "internalType": "uint256",
          "name": "",
          "type": "uint256"
        }
      ],
      "stateMutability": "view",
      "type": "function"
    },
    {
      "inputs": [
        {
          "internalType": "address",
          "name": "spender",
          "type": "address"
        },
        {
          "internalType": "uint256",
          "name": "value",
          "type": "uint256"
        }
      ],
      "name": "approve",
      "outputs": [
        {
          "internalType": "bool",
          "name": "",
          "type": "bool"
        }
      ],
      "stateMutability": "nonpayable",
      "type": "function"
    },
    {
      "inputs": [
        {
          "internalType": "address",
          "name": "account",
          "type": "address"
        }
      ],
      "name": "balanceOf",
      "outputs": [
        {
          "internalType": "uint256",
          "name": "",
          "type": "uint256"
        }
      ],
      "stateMutability": "view",
      "type": "function"
    },
    {
      "inputs": [],
      "name": "bridge",
      "outputs": [
        {
          "internalType": "address",
          "name": "",
          "type": "address"
        }
      ],
      "stateMutability": "view",
      "type": "function"
    },
    {
      "inputs": [
        {
          "internalType": "uint256",
          "name": "amount",
          "type": "uint256"
        },
        {
          "internalType": "string",
          "name": "targetChain",
          "type": "string"
        },
        {
          "internalType": "string",
          "name": "targetAddress",
          "type": "string"
        }
      ],
      "name": "bridgeBurn",
      "outputs": [],
      "stateMutability": "nonpayable",
      "type": "function"
    },
    {
      "inputs": [
        {
          "internalType": "address",
          "name": "to",
          "type": "address"
        },
        {
          "internalType": "uint256",
          "name": "amount",
          "type": "uint256"
        },
        {
          "internalType": "string",
          "name": "sourceChain",
          "type": "string"
        },
        {
          "internalType": "string",
          "name": "sourceTxHash",
          "type": "string"
        }
      ],
      "name": "bridgeMint",
      "outputs": [],
      "stateMutability": "nonpayable",
      "type": "function"
    },
    {
      "inputs": [
        {
          "internalType": "uint256",
          "name": "value",
          "type": "uint256"
        }
      ],
      "name": "burn",
      "outputs": [],
      "stateMutability": "nonpayable",
      "type": "function"
    },
    {
      "inputs": [
        {
          "internalType": "address",
          "name": "account",
          "type": "address"
        },
        {
          "internalType": "uint256",
          "name": "value",
          "type": "uint256"
        }
      ],
      "name": "burnFrom",
      "outputs": [],
      "stateMutability": "nonpayable",
      "type": "function"
    },
    {
      "inputs": [],
      "name": "decimals",
      "outputs": [
        {
          "internalType": "uint8",
          "name": "",
          "type": "uint8"
        }
      ],
      "stateMutability": "view",
      "type": "function"
    },
    {
      "inputs": [
        {
          "internalType": "address",
          "name": "to",
          "type": "address"
        },
        {
          "internalType": "uint256",
          "name": "amount",
          "type": "uint256"
        }
      ],
      "name": "mint",
      "outputs": [],
      "stateMutability": "nonpayable",
      "type": "function"
    },
    {
      "inputs": [],
      "name": "name",
      "outputs": [
        {
          "internalType": "string",
          "name": "",
          "type": "string"
        }
      ],
      "stateMutability": "view",
      "type": "function"
    },
    {
      "inputs": [],
      "name": "owner",
      "outputs": [
        {
          "internalType": "address",
          "name": "",
          "type": "address"
        }
      ],
      "stateMutability": "view",
      "type": "function"
    },
    {
      "inputs": [],
      "name": "renounceOwnership",
      "outputs": [],
      "stateMutability": "nonpayable",
      "type": "function"
    },
    {
      "inputs": [],
      "name": "reserve",
      "outputs": [
        {
          "internalType": "address",
          "name": "",
          "type": "address"
        }
      ],
      "stateMutability": "view",
      "type": "function"
    },
    {
      "inputs": [
        {
          "internalType": "address",
          "name": "_bridge",
          "type": "address"
        }
      ],
      "name": "setBridge",
      "outputs": [],
      "stateMutability": "nonpayable",
      "type": "function"
    },
    {
      "inputs": [
        {
          "internalType": "address",
          "name": "_reserve",
          "type": "address"
        }
      ],
      "name": "setReserve",
      "outputs": [],
      "stateMutability": "nonpayable",
      "type": "function"
    },
    {
      "inputs": [],
      "name": "symbol",
      "outputs": [
        {
          "internalType": "string",
          "name": "",
          "type": "string"
        }
      ],
      "stateMutability": "view",
      "type": "function"
    },
    {
      "inputs": [],
      "name": "tokenInfo",
      "outputs": [
        {
          "internalType": "string",
          "name": "name_",
          "type": "string"
        },
        {
          "internalType": "string",
          "name": "symbol_",
          "type": "string"
        },
        {
          "internalType": "uint8",
          "name": "decimals_",
          "type": "uint8"
        },
        {
          "internalType": "uint256",
          "name": "maxSupply_",
          "type": "uint256"
        }
      ],
      "stateMutability": "pure",
      "type": "function"
    },
    {
      "inputs": [],
      "name": "totalSupply",
      "outputs": [
        {
          "internalType": "uint256",
          "name": "",
          "type": "uint256"
        }
      ],
      "stateMutability": "view",
      "type": "function"
    },
    {
      "inputs": [
        {
          "internalType": "address",
          "name": "to",
          "type": "address"
        },
        {
          "internalType": "uint256",
          "name": "value",
          "type": "uint256"
        }
      ],
      "name": "transfer",
      "outputs": [
        {
          "internalType": "bool",
          "name": "",
          "type": "bool"
        }
      ],
      "stateMutability": "nonpayable",
      "type": "function"
    },
    {
      "inputs": [
        {
          "internalType": "address",
          "name": "from",
          "type": "address"
        },
        {
          "internalType": "address",
          "name": "to",
          "type": "address"
        },
        {
          "internalType": "uint256",
          "name": "value",
          "type": "uint256"
        }
      ],
      "name": "transferFrom",
      "outputs": [
        {
          "internalType": "bool",
          "name": "",
          "type": "bool"
        }
      ],
      "stateMutability": "nonpayable",
      "type": "function"
    },
    {
      "inputs": [
        {
          "internalType": "address",
          "name": "newOwner",
          "type": "address"
        }
      ],
      "name": "transferOwnership",
      "outputs": [],
      "stateMutability": "nonpayable",
      "type": "function"
    }
  ],
  "bytecode": "0x60806040523480156200001157600080fd5b506040516200169c3803806200169c8339810160408190526200003491620002b5565b806040518060400160405280600a815260200169145c9a5c1d1bd0d1539560b21b815250604051806040016040528060038152602001621450d560ea1b81525081600390816200008591906200038c565b5060046200009482826200038c565b5050506001600160a01b038116620000c757604051631e4fbdf760e01b8152600060048201526024015b60405180910390fd5b620000d281620000f2565b50620000eb816b014adf4b7320334b9000000062000144565b5062000480565b600580546001600160a01b038381166001600160a01b0319831681179093556040519116919082907f8be0079c531659141344cd1fd0a4f28419497f9722a3daafe3b4186f6b6457e090600090a35050565b6001600160a01b038216620001705760405163ec442f0560e01b815260006004820152602401620000be565b6200017e6000838362000182565b5050565b6001600160a01b038316620001b1578060026000828254620001a5919062000458565b90915550620002259050565b6001600160a01b03831660009081526020819052604090205481811015620002065760405163391434e360e21b81526001600160a01b03851660048201526024810182905260448101839052606401620000be565b6001600160a01b03841660009081526020819052604090209082900390555b6001600160a01b038216620002435760028054829003905562000262565b6001600160a01b03821660009081526020819052604090208054820190555b816001600160a01b0316836001600160a01b03167fddf252ad1be2c89b69c2b068fc378daa952ba7f163c4a11628f55a4df523b3ef83604051620002a891815260200190565b60405180910390a3505050565b600060208284031215620002c857600080fd5b81516001600160a01b0381168114620002e057600080fd5b9392505050565b634e487b7160e01b600052604160045260246000fd5b600181811c908216806200031257607f821691505b6020821081036200033357634e487b7160e01b600052602260045260246000fd5b50919050565b601f8211156200038757600081815260208120601f850160051c81016020861015620003625750805b601f850160051c820191505b8181101562000383578281556001016200036e565b5050505b505050565b81516001600160401b03811115620003a857620003a8620002e7565b620003c081620003b98454620002fd565b8462000339565b602080601f831160018114620003f85760008415620003df5750858301515b600019600386901b1c1916600185901b17855562000383565b600085815260208120601f198616915b82811015620004295788860151825594840194600190910190840162000408565b5085821015620004485787850151600019600388901b60f8161c191681555b5050505050600190811b01905550565b808201808211156200047a57634e487b7160e01b600052601160045260246000fd5b92915050565b61120c80620004906000396000f3fe608060405234801561001057600080fd5b506004361061014d5760003560e01c806379cc6790116100c3578063c11c79891161007c578063c11c798914610307578063cb0812691461031a578063cd3293de1461032d578063dd62ed3e14610340578063e78cea9214610379578063f2fde38b1461038c57600080fd5b806379cc67901461028e5780638da5cb5b146102a15780638dd14802146102c657806395d89b41146102d95780639cecc80a146102e1578063a9059cbb146102f457600080fd5b806332cb6b0c1161011557806332cb6b0c146101c757806340c10f19146101da57806342966c68146101ef5780636addb6631461020257806370a082311461025d578063715018a61461028657600080fd5b806306fdde0314610152578063095ea7b31461017057806318160ddd1461019357806323b872dd146101a5578063313ce567146101b8575b600080fd5b61015a61039f565b6040516101679190610e79565b60405180910390f35b61018361017e366004610eaf565b610431565b6040519015158152602001610167565b6002545b604051908152602001610167565b6101836101b3366004610ed9565b61044b565b60405160128152602001610167565b6101976b033b2e3c9fd0803ce800000081565b6101ed6101e8366004610eaf565b61046f565b005b6101ed6101fd366004610f15565b610598565b604080518082018252600a815269145c9a5c1d1bd0d1539560b21b602080830191909152825180840190935260038352621450d560ea1b908301529060126b033b2e3c9fd0803ce80000006040516101679493929190610f2e565b61019761026b366004610f6a565b6001600160a01b031660009081526020819052604090205490565b6101ed6105a5565b6101ed61029c366004610eaf565b6105b9565b6005546001600160a01b03165b6040516001600160a01b039091168152602001610167565b6101ed6102d4366004610f6a565b6105ce565b61015a610689565b6101ed6102ef366004610f6a565b610698565b610183610302366004610eaf565b610754565b6101ed610315366004611028565b610762565b6101ed610328366004611095565b6108b3565b6007546102ae906001600160a01b031681565b61019761034e366004611113565b6001600160a01b03918216600090815260016020908152604080832093909416825291909152205490565b6006546102ae906001600160a01b031681565b6101ed61039a366004610f6a565b610a1e565b6060600380546103ae90611146565b80601f01602080910402602001604051908101604052809291908181526020018280546103da90611146565b80156104275780601f106103fc57610100808354040283529160200191610427565b820191906000526020600020905b81548152906001019060200180831161040a57829003601f168201915b5050505050905090565b60003361043f818585610a59565b60019150505b92915050565b600033610459858285610a6b565b610464858585610aea565b506001949350505050565b6007546001600160a01b031633146104ce5760405162461bcd60e51b815260206004820152601a60248201527f5143543a204f6e6c7920726573657276652063616e206d696e7400000000000060448201526064015b60405180910390fd5b6001600160a01b0382166105205760405162461bcd60e51b81526020600482015260196024820152785143543a204d696e7420746f207a65726f206164647265737360381b60448201526064016104c5565b6b033b2e3c9fd0803ce80000008161053760025490565b6105419190611180565b111561058a5760405162461bcd60e51b81526020600482015260186024820152771450d50e8813585e081cdd5c1c1b1e48195e18d95959195960421b60448201526064016104c5565b6105948282610b49565b5050565b6105a23382610b7f565b50565b6105ad610bb5565b6105b76000610be2565b565b6105c4823383610a6b565b6105948282610b7f565b6105d6610bb5565b6001600160a01b0381166106375760405162461bcd60e51b815260206004820152602260248201527f5143543a204272696467652063616e6e6f74206265207a65726f206164647265604482015261737360f01b60648201526084016104c5565b600680546001600160a01b038381166001600160a01b0319831681179093556040519116919082907faae9beddccf584528e87b66c6ff2563825c8a1433305b8a656e9b5f9bf39049990600090a35050565b6060600480546103ae90611146565b6106a0610bb5565b6001600160a01b0381166107025760405162461bcd60e51b815260206004820152602360248201527f5143543a20526573657276652063616e6e6f74206265207a65726f206164647260448201526265737360e81b60648201526084016104c5565b600780546001600160a01b038381166001600160a01b0319831681179093556040519116919082907fbd45c5f5d28e3962d234f9fa4e443f6f92e4525b10556e441307306fab9f9e0390600090a35050565b60003361043f818585610aea565b600083116107bd5760405162461bcd60e51b815260206004820152602260248201527f5143543a20416d6f756e74206d7573742062652067726561746572207468616e604482015261020360f41b60648201526084016104c5565b600082511161080e5760405162461bcd60e51b815260206004820152601a60248201527f5143543a2054617267657420636861696e20726571756972656400000000000060448201526064016104c5565b600081511161085f5760405162461bcd60e51b815260206004820152601c60248201527f5143543a2054617267657420616464726573732072657175697265640000000060448201526064016104c5565b6108693384610b7f565b336001600160a01b03167f2a066751a36c75b553499234e316ad38eb2c4501f2d16bf7cb8245bea536fe818484846040516108a6939291906111a1565b60405180910390a2505050565b6006546001600160a01b0316331461090d5760405162461bcd60e51b815260206004820152601960248201527f5143543a204f6e6c79206272696467652063616e206d696e740000000000000060448201526064016104c5565b6001600160a01b03841661095f5760405162461bcd60e51b81526020600482015260196024820152785143543a204d696e7420746f207a65726f206164647265737360381b60448201526064016104c5565b6b033b2e3c9fd0803ce80000008361097660025490565b6109809190611180565b11156109c95760405162461bcd60e51b81526020600482015260186024820152771450d50e8813585e081cdd5c1c1b1e48195e18d95959195960421b60448201526064016104c5565b6109d38484610b49565b836001600160a01b03167f441baf84b3df12a08f0646a6bdcb06a4d29f3042b02814d1c2f6e945bbeffdfe848484604051610a10939291906111a1565b60405180910390a250505050565b610a26610bb5565b6001600160a01b038116610a5057604051631e4fbdf760e01b8152600060048201526024016104c5565b6105a281610be2565b610a668383836001610c34565b505050565b6001600160a01b03838116600090815260016020908152604080832093861683529290522054600019811015610ae45781811015610ad557604051637dc7a0d960e11b81526001600160a01b038416600482015260248101829052604481018390526064016104c5565b610ae484848484036000610c34565b50505050565b6001600160a01b038316610b1457604051634b637e8f60e11b8152600060048201526024016104c5565b6001600160a01b038216610b3e5760405163ec442f0560e01b8152600060048201526024016104c5565b610a66838383610d09565b6001600160a01b038216610b735760405163ec442f0560e01b8152600060048201526024016104c5565b61059460008383610d09565b6001600160a01b038216610ba957604051634b637e8f60e11b8152600060048201526024016104c5565b61059482600083610d09565b6005546001600160a01b031633146105b75760405163118cdaa760e01b81523360048201526024016104c5565b600580546001600160a01b038381166001600160a01b0319831681179093556040519116919082907f8be0079c531659141344cd1fd0a4f28419497f9722a3daafe3b4186f6b6457e090600090a35050565b6001600160a01b038416610c5e5760405163e602df0560e01b8152600060048201526024016104c5565b6001600160a01b038316610c8857604051634a1406b160e11b8152600060048201526024016104c5565b6001600160a01b0380851660009081526001602090815260408083209387168352929052208290558015610ae457826001600160a01b0316846001600160a01b03167f8c5be1e5ebec7d5bd14f71427d1e84f3dd0314c0f7b2291e5b200ac8c7c3b92584604051610cfb91815260200190565b60405180910390a350505050565b6001600160a01b038316610d34578060026000828254610d299190611180565b90915550610da69050565b6001600160a01b03831660009081526020819052604090205481811015610d875760405163391434e360e21b81526001600160a01b038516600482015260248101829052604481018390526064016104c5565b6001600160a01b03841660009081526020819052604090209082900390555b6001600160a01b038216610dc257600280548290039055610de1565b6001600160a01b03821660009081526020819052604090208054820190555b816001600160a01b0316836001600160a01b03167fddf252ad1be2c89b69c2b068fc378daa952ba7f163c4a11628f55a4df523b3ef83604051610e2691815260200190565b60405180910390a3505050565b6000815180845260005b81811015610e5957602081850181015186830182015201610e3d565b506000602082860101526020601f19601f83011685010191505092915050565b602081526000610e8c6020830184610e33565b9392505050565b80356001600160a01b0381168114610eaa57600080fd5b919050565b60008060408385031215610ec257600080fd5b610ecb83610e93565b946020939093013593505050565b600080600060608486031215610eee57600080fd5b610ef784610e93565b9250610f0560208501610e93565b9150604084013590509250925092565b600060208284031215610f2757600080fd5b5035919050565b608081526000610f416080830187610e33565b8281036020840152610f538187610e33565b60ff95909516604084015250506060015292915050565b600060208284031215610f7c57600080fd5b610e8c82610e93565b634e487b7160e01b600052604160045260246000fd5b600082601f830112610fac57600080fd5b813567ffffffffffffffff80821115610fc757610fc7610f85565b604051601f8301601f19908116603f01168101908282118183101715610fef57610fef610f85565b8160405283815286602085880101111561100857600080fd5b836020870160208301376000602085830101528094505050505092915050565b60008060006060848603121561103d57600080fd5b83359250602084013567ffffffffffffffff8082111561105c57600080fd5b61106887838801610f9b565b9350604086013591508082111561107e57600080fd5b5061108b86828701610f9b565b9150509250925092565b600080600080608085870312156110ab57600080fd5b6110b485610e93565b935060208501359250604085013567ffffffffffffffff808211156110d857600080fd5b6110e488838901610f9b565b935060608701359150808211156110fa57600080fd5b5061110787828801610f9b565b91505092959194509250565b6000806040838503121561112657600080fd5b61112f83610e93565b915061113d60208401610e93565b90509250929050565b600181811c9082168061115a57607f821691505b60208210810361117a57634e487b7160e01b600052602260045260246000fd5b50919050565b8082018082111561044557634e487b7160e01b600052601160045260246000fd5b8381526060602082015260006111ba6060830185610e33565b82810360408401526111cc8185610e33565b969550505050505056fea264697066735822122056d657ee4d85946918103069f15072fe98c554cecd2bd7f6d9c103e8f0df67db64736f6c63430008140033",
  "linkReferences": {},
  "deployedLinkReferences": {}
}