{
  "_format": "hh-sol-artifact-1",
  "contractName": "TokenQubeACL",
  "sourceName": "contracts/TokenQubeACL.sol",
  "abi": [
    {
      "anonymous": false,
      "inputs": [
        {
          "indexed": true,
          "internalType": "uint256",
          "name": "tokenId",
          "type": "uint256"
        },
        {
          "indexed": true,
          "internalType": "address",
          "name": "to",
          "type": "address"
        },
        {
          "indexed": false,
          "internalType": "bytes32",
          "name": "scopeHash",
          "type": "bytes32"
        },
        {
          "indexed": false,
          "internalType": "uint64",
          "name": "ttl",
          "type": "uint64"
        },
        {
          "indexed": false,
          "internalType": "bytes32",
          "name": "nonce",
          "type": "bytes32"
        }
      ],
      "name": "CapabilityGranted",
      "type": "event"
    },
    {
      "anonymous": false,
      "inputs": [
        {
          "indexed": true,
          "internalType": "uint256",
          "name": "tokenId",
          "type": "uint256"
        },
        {
          "indexed": true,
          "internalType": "address",
          "name": "from",
          "type": "address"
        },
        {
          "indexed": true,
          "internalType": "address",
          "name": "to",
          "type": "address"
        }
      ],
      "name": "OwnerTransferred",
      "type": "event"
    },
    {
      "inputs": [
        {
          "internalType": "uint256",
          "name": "tokenId",
          "type": "uint256"
        },
        {
          "internalType": "address",
          "name": "to",
          "type": "address"
        },
        {
          "internalType": "bytes32",
          "name": "scopeHash",
          "type": "bytes32"
        },
        {
          "internalType": "uint64",
          "name": "ttl",
          "type": "uint64"
        },
        {
          "internalType": "bytes",
          "name": "",
          "type": "bytes"
        },
        {
          "internalType": "bytes",
          "name": "",
          "type": "bytes"
        },
        {
          "internalType": "bytes",
          "name": "",
          "type": "bytes"
        }
      ],
      "name": "grantCapability",
      "outputs": [],
      "stateMutability": "nonpayable",
      "type": "function"
    },
    {
      "inputs": [
        {
          "internalType": "uint256",
          "name": "",
          "type": "uint256"
        }
      ],
      "name": "ownerOf",
      "outputs": [
        {
          "internalType": "address",
          "name": "",
          "type": "address"
        }
      ],
      "stateMutability": "view",
      "type": "function"
    },
    {
      "inputs": [
        {
          "internalType": "uint256",
          "name": "tokenId",
          "type": "uint256"
        },
        {
          "internalType": "address",
          "name": "to",
          "type": "address"
        },
        {
          "internalType": "bytes32",
          "name": "scopeHash",
          "type": "bytes32"
        }
      ],
      "name": "revokeCapability",
      "outputs": [],
      "stateMutability": "nonpayable",
      "type": "function"
    },
    {
      "inputs": [
        {
          "internalType": "uint256",
          "name": "tokenId",
          "type": "uint256"
        },
        {
          "internalType": "address",
          "name": "to",
          "type": "address"
        },
        {
          "internalType": "bytes",
          "name": "",
          "type": "bytes"
        },
        {
          "internalType": "bytes",
          "name": "",
          "type": "bytes"
        }
      ],
      "name": "transferOwnerWithDID",
      "outputs": [],
      "stateMutability": "nonpayable",
      "type": "function"
    },
    {
      "inputs": [
        {
          "internalType": "uint256",
          "name": "",
          "type": "uint256"
        },
        {
          "internalType": "address",
          "name": "",
          "type": "address"
        },
        {
          "internalType": "bytes32",
          "name": "",
          "type": "bytes32"
        }
      ],
      "name": "ttlByScope",
      "outputs": [
        {
          "internalType": "uint64",
          "name": "",
          "type": "uint64"
        }
      ],
      "stateMutability": "view",
      "type": "function"
    }
  ],
  "bytecode": "0x608060405234801561001057600080fd5b50610543806100206000396000f3fe608060405234801561001057600080fd5b50600436106100575760003560e01c80630cfaf0991461005c5780636352211e14610071578063657cdf65146100b75780637407ebe31461010a578063f659299b1461011d575b600080fd5b61006f61006a366004610312565b610130565b005b61009a61007f366004610347565b6001602052600090815260409020546001600160a01b031681565b6040516001600160a01b0390911681526020015b60405180910390f35b6100f16100c5366004610312565b6000602081815293815260408082208552928152828120909352825290205467ffffffffffffffff1681565b60405167ffffffffffffffff90911681526020016100ae565b61006f6101183660046103a9565b6101af565b61006f61012b366004610483565b610294565b6000838152602081815260408083206001600160a01b0386168085529083528184208585528352818420805467ffffffffffffffff1916905581518581529283018490529082019290925284907f3b39871a92b7d862700818d19fe9a2391ac67dab05207225de271751c511570f9060600160405180910390a3505050565b60008a8152602081815260408083206001600160a01b038d168085529083528184208c85528352818420805467ffffffffffffffff191667ffffffffffffffff8d1690811790915582519384018f905291830152606082018b905260808201524360a082015260c00160408051601f1981840301815282825280516020918201208c845267ffffffffffffffff8c169184019190915290820181905291506001600160a01b038b16908c907f3b39871a92b7d862700818d19fe9a2391ac67dab05207225de271751c511570f9060600160405180910390a35050505050505050505050565b60008681526001602052604080822080546001600160a01b031981166001600160a01b038a8116918217909355925191169283918a917f6ec74f357a0767aee452257973b2576cda349fa0d24adc05664f5ae0ec07603091a450505050505050565b80356001600160a01b038116811461030d57600080fd5b919050565b60008060006060848603121561032757600080fd5b83359250610337602085016102f6565b9150604084013590509250925092565b60006020828403121561035957600080fd5b5035919050565b60008083601f84011261037257600080fd5b50813567ffffffffffffffff81111561038a57600080fd5b6020830191508360208285010111156103a257600080fd5b9250929050565b60008060008060008060008060008060e08b8d0312156103c857600080fd5b8a3599506103d860208c016102f6565b985060408b0135975060608b013567ffffffffffffffff80821682146103fd57600080fd5b90975060808c0135908082111561041357600080fd5b61041f8e838f01610360565b909850965060a08d013591508082111561043857600080fd5b6104448e838f01610360565b909650945060c08d013591508082111561045d57600080fd5b5061046a8d828e01610360565b915080935050809150509295989b9194979a5092959850565b6000806000806000806080878903121561049c57600080fd5b863595506104ac602088016102f6565b9450604087013567ffffffffffffffff808211156104c957600080fd5b6104d58a838b01610360565b909650945060608901359150808211156104ee57600080fd5b506104fb89828a01610360565b979a969950949750929593949250505056fea26469706673582212207045076b80639a7d2e5274f3629a74e633fbec5e98cb0939ecaf3434617fa3c364736f6c63430008140033",
  "linkReferences": {},
  "deployedLinkReferences": {}
}