{
  "_format": "hh-sol-artifact-1",
  "contractName": "QCTToken",
  "sourceName": "contracts/QCTToken.sol",
  "abi": [
    {
      "inputs": [
        {
          "internalType": "string",
          "name": "name",
          "type": "string"
        },
        {
          "internalType": "string",
          "name": "symbol",
          "type": "string"
        },
        {
          "internalType": "uint256",
          "name": "initialSupply",
          "type": "uint256"
        },
        {
          "internalType": "address",
          "name": "initialOwner",
          "type": "address"
        }
      ],
      "stateMutability": "nonpayable",
      "type": "constructor"
    },
    {
      "inputs": [
        {
          "internalType": "address",
          "name": "spender",
          "type": "address"
        },
        {
          "internalType": "uint256",
          "name": "allowance",
          "type": "uint256"
        },
        {
          "internalType": "uint256",
          "name": "needed",
          "type": "uint256"
        }
      ],
      "name": "ERC20InsufficientAllowance",
      "type": "error"
    },
    {
      "inputs": [
        {
          "internalType": "address",
          "name": "sender",
          "type": "address"
        },
        {
          "internalType": "uint256",
          "name": "balance",
          "type": "uint256"
        },
        {
          "internalType": "uint256",
          "name": "needed",
          "type": "uint256"
        }
      ],
      "name": "ERC20InsufficientBalance",
      "type": "error"
    },
    {
      "inputs": [
        {
          "internalType": "address",
          "name": "approver",
          "type": "address"
        }
      ],
      "name": "ERC20InvalidApprover",
      "type": "error"
    },
    {
      "inputs": [
        {
          "internalType": "address",
          "name": "receiver",
          "type": "address"
        }
      ],
      "name": "ERC20InvalidReceiver",
      "type": "error"
    },
    {
      "inputs": [
        {
          "internalType": "address",
          "name": "sender",
          "type": "address"
        }
      ],
      "name": "ERC20InvalidSender",
      "type": "error"
    },
    {
      "inputs": [
        {
          "internalType": "address",
          "name": "spender",
          "type": "address"
        }
      ],
      "name": "ERC20InvalidSpender",
      "type": "error"
    },
    {
      "inputs": [],
      "name": "EnforcedPause",
      "type": "error"
    },
    {
      "inputs": [],
      "name": "ExpectedPause",
      "type": "error"
    },
    {
      "inputs": [
        {
          "internalType": "address",
          "name": "owner",
          "type": "address"
        }
      ],
      "name": "OwnableInvalidOwner",
      "type": "error"
    },
    {
      "inputs": [
        {
          "internalType": "address",
          "name": "account",
          "type": "address"
        }
      ],
      "name": "OwnableUnauthorizedAccount",
      "type": "error"
    },
    {
      "anonymous": false,
      "inputs": [
        {
          "indexed": true,
          "internalType": "address",
          "name": "owner",
          "type": "address"
        },
        {
          "indexed": true,
          "internalType": "address",
          "name": "spender",
          "type": "address"
        },
        {
          "indexed": false,
          "internalType": "uint256",
          "name": "value",
          "type": "uint256"
        }
      ],
      "name": "Approval",
      "type": "event"
    },
    {
      "anonymous": false,
      "inputs": [
        {
          "indexed": true,
          "internalType": "address",
          "name": "oldBridge",
          "type": "address"
        },
        {
          "indexed": true,
          "internalType": "address",
          "name": "newBridge",
          "type": "address"
        }
      ],
      "name": "BridgeContractUpdated",
      "type": "event"
    },
    {
      "anonymous": false,
      "inputs": [
        {
          "indexed": true,
          "internalType": "address",
          "name": "previousOwner",
          "type": "address"
        },
        {
          "indexed": true,
          "internalType": "address",
          "name": "newOwner",
          "type": "address"
        }
      ],
      "name": "OwnershipTransferred",
      "type": "event"
    },
    {
      "anonymous": false,
      "inputs": [
        {
          "indexed": false,
          "internalType": "address",
          "name": "account",
          "type": "address"
        }
      ],
      "name": "Paused",
      "type": "event"
    },
    {
      "anonymous": false,
      "inputs": [
        {
          "indexed": true,
          "internalType": "address",
          "name": "from",
          "type": "address"
        },
        {
          "indexed": false,
          "internalType": "uint256",
          "name": "amount",
          "type": "uint256"
        },
        {
          "indexed": false,
          "internalType": "string",
          "name": "reason",
          "type": "string"
        }
      ],
      "name": "TokensBurned",
      "type": "event"
    },
    {
      "anonymous": false,
      "inputs": [
        {
          "indexed": true,
          "internalType": "address",
          "name": "to",
          "type": "address"
        },
        {
          "indexed": false,
          "internalType": "uint256",
          "name": "amount",
          "type": "uint256"
        },
        {
          "indexed": false,
          "internalType": "string",
          "name": "reason",
          "type": "string"
        }
      ],
      "name": "TokensMinted",
      "type": "event"
    },
    {
      "anonymous": false,
      "inputs": [
        {
          "indexed": true,
          "internalType": "address",
          "name": "from",
          "type": "address"
        },
        {
          "indexed": true,
          "internalType": "address",
          "name": "to",
          "type": "address"
        },
        {
          "indexed": false,
          "internalType": "uint256",
          "name": "value",
          "type": "uint256"
        }
      ],
      "name": "Transfer",
      "type": "event"
    },
    {
      "anonymous": false,
      "inputs": [
        {
          "indexed": false,
          "internalType": "address",
          "name": "account",
          "type": "address"
        }
      ],
      "name": "Unpaused",
      "type": "event"
    },
    {
      "inputs": [],
      "name": "MAX_SUPPLY",
      "outputs": [
        {
          "internalType": "uint256",
          "name": "",
          "type": "uint256"
        }
      ],
      "stateMutability": "view",
      "type": "function"
    },
    {
      "inputs": [
        {
          "internalType": "address",
          "name": "owner",
          "type": "address"
        },
        {
          "internalType": "address",
          "name": "spender",
          "type": "address"
        }
      ],
      "name": "allowance",
      "outputs": [
        {
          "internalType": "uint256",
          "name": "",
          "type": "uint256"
        }
      ],
      "stateMutability": "view",
      "type": "function"
    },
    {
      "inputs": [
        {
          "internalType": "address",
          "name": "spender",
          "type": "address"
        },
        {
          "internalType": "uint256",
          "name": "value",
          "type": "uint256"
        }
      ],
      "name": "approve",
      "outputs": [
        {
          "internalType": "bool",
          "name": "",
          "type": "bool"
        }
      ],
      "stateMutability": "nonpayable",
      "type": "function"
    },
    {
      "inputs": [
        {
          "internalType": "address",
          "name": "account",
          "type": "address"
        }
      ],
      "name": "balanceOf",
      "outputs": [
        {
          "internalType": "uint256",
          "name": "",
          "type": "uint256"
        }
      ],
      "stateMutability": "view",
      "type": "function"
    },
    {
      "inputs": [
        {
          "internalType": "address",
          "name": "from",
          "type": "address"
        },
        {
          "internalType": "uint256",
          "name": "amount",
          "type": "uint256"
        },
        {
          "internalType": "string",
          "name": "bridgeId",
          "type": "string"
        }
      ],
      "name": "bridgeBurn",
      "outputs": [],
      "stateMutability": "nonpayable",
      "type": "function"
    },
    {
      "inputs": [],
      "name": "bridgeContract",
      "outputs": [
        {
          "internalType": "address",
          "name": "",
          "type": "address"
        }
      ],
      "stateMutability": "view",
      "type": "function"
    },
    {
      "inputs": [
        {
          "internalType": "address",
          "name": "to",
          "type": "address"
        },
        {
          "internalType": "uint256",
          "name": "amount",
          "type": "uint256"
        },
        {
          "internalType": "string",
          "name": "bridgeId",
          "type": "string"
        }
      ],
      "name": "bridgeMint",
      "outputs": [],
      "stateMutability": "nonpayable",
      "type": "function"
    },
    {
      "inputs": [
        {
          "internalType": "uint256",
          "name": "value",
          "type": "uint256"
        }
      ],
      "name": "burn",
      "outputs": [],
      "stateMutability": "nonpayable",
      "type": "function"
    },
    {
      "inputs": [
        {
          "internalType": "address",
          "name": "account",
          "type": "address"
        },
        {
          "internalType": "uint256",
          "name": "value",
          "type": "uint256"
        }
      ],
      "name": "burnFrom",
      "outputs": [],
      "stateMutability": "nonpayable",
      "type": "function"
    },
    {
      "inputs": [],
      "name": "decimals",
      "outputs": [
        {
          "internalType": "uint8",
          "name": "",
          "type": "uint8"
        }
      ],
      "stateMutability": "view",
      "type": "function"
    },
    {
      "inputs": [
        {
          "internalType": "address",
          "name": "token",
          "type": "address"
        },
        {
          "internalType": "address",
          "name": "to",
          "type": "address"
        },
        {
          "internalType": "uint256",
          "name": "amount",
          "type": "uint256"
        }
      ],
      "name": "emergencyWithdraw",
      "outputs": [],
      "stateMutability": "nonpayable",
      "type": "function"
    },
    {
      "inputs": [],
      "name": "getInfo",
      "outputs": [
        {
          "internalType": "string",
          "name": "name_",
          "type": "string"
        },
        {
          "internalType": "string",
          "name": "symbol_",
          "type": "string"
        },
        {
          "internalType": "uint8",
          "name": "decimals_",
          "type": "uint8"
        },
        {
          "internalType": "uint256",
          "name": "totalSupply_",
          "type": "uint256"
        },
        {
          "internalType": "uint256",
          "name": "maxSupply_",
          "type": "uint256"
        },
        {
          "internalType": "address",
          "name": "owner_",
          "type": "address"
        },
        {
          "internalType": "address",
          "name": "bridge_",
          "type": "address"
        },
        {
          "internalType": "bool",
          "name": "paused_",
          "type": "bool"
        }
      ],
      "stateMutability": "view",
      "type": "function"
    },
    {
      "inputs": [
        {
          "internalType": "address",
          "name": "to",
          "type": "address"
        },
        {
          "internalType": "uint256",
          "name": "amount",
          "type": "uint256"
        }
      ],
      "name": "mint",
      "outputs": [],
      "stateMutability": "nonpayable",
      "type": "function"
    },
    {
      "inputs": [],
      "name": "name",
      "outputs": [
        {
          "internalType": "string",
          "name": "",
          "type": "string"
        }
      ],
      "stateMutability": "view",
      "type": "function"
    },
    {
      "inputs": [],
      "name": "owner",
      "outputs": [
        {
          "internalType": "address",
          "name": "",
          "type": "address"
        }
      ],
      "stateMutability": "view",
      "type": "function"
    },
    {
      "inputs": [],
      "name": "pause",
      "outputs": [],
      "stateMutability": "nonpayable",
      "type": "function"
    },
    {
      "inputs": [],
      "name": "paused",
      "outputs": [
        {
          "internalType": "bool",
          "name": "",
          "type": "bool"
        }
      ],
      "stateMutability": "view",
      "type": "function"
    },
    {
      "inputs": [],
      "name": "renounceOwnership",
      "outputs": [],
      "stateMutability": "nonpayable",
      "type": "function"
    },
    {
      "inputs": [
        {
          "internalType": "address",
          "name": "newBridge",
          "type": "address"
        }
      ],
      "name": "setBridgeContract",
      "outputs": [],
      "stateMutability": "nonpayable",
      "type": "function"
    },
    {
      "inputs": [],
      "name": "symbol",
      "outputs": [
        {
          "internalType": "string",
          "name": "",
          "type": "string"
        }
      ],
      "stateMutability": "view",
      "type": "function"
    },
    {
      "inputs": [],
      "name": "totalSupply",
      "outputs": [
        {
          "internalType": "uint256",
          "name": "",
          "type": "uint256"
        }
      ],
      "stateMutability": "view",
      "type": "function"
    },
    {
      "inputs": [
        {
          "internalType": "address",
          "name": "to",
          "type": "address"
        },
        {
          "internalType": "uint256",
          "name": "value",
          "type": "uint256"
        }
      ],
      "name": "transfer",
      "outputs": [
        {
          "internalType": "bool",
          "name": "",
          "type": "bool"
        }
      ],
      "stateMutability": "nonpayable",
      "type": "function"
    },
    {
      "inputs": [
        {
          "internalType": "address",
          "name": "from",
          "type": "address"
        },
        {
          "internalType": "address",
          "name": "to",
          "type": "address"
        },
        {
          "internalType": "uint256",
          "name": "value",
          "type": "uint256"
        }
      ],
      "name": "transferFrom",
      "outputs": [
        {
          "internalType": "bool",
          "name": "",
          "type": "bool"
        }
      ],
      "stateMutability": "nonpayable",
      "type": "function"
    },
    {
      "inputs": [
        {
          "internalType": "address",
          "name": "newOwner",
          "type": "address"
        }
      ],
      "name": "transferOwnership",
      "outputs": [],
      "stateMutability": "nonpayable",
      "type": "function"
    },
    {
      "inputs": [],
      "name": "unpause",
      "outputs": [],
      "stateMutability": "nonpayable",
      "type": "function"
    }
  ],
  "bytecode": "0x60806040523480156200001157600080fd5b5060405162001a0838038062001a08833981016040819052620000349162000450565b808484600362000045838262000573565b50600462000054828262000573565b5050506001600160a01b0381166200008757604051631e4fbdf760e01b8152600060048201526024015b60405180910390fd5b620000928162000177565b506b033b2e3c9fd0803ce8000000821115620000f15760405162461bcd60e51b815260206004820152601e60248201527f496e697469616c20737570706c792065786365656473206d6178696d756d000060448201526064016200007e565b81156200016d57620001048183620001c9565b806001600160a01b03167f9d89e36eadf856db0ad9ffb5a569e07f95634dddd9501141ecf04820484ad0dc8360405162000164918152604060208201819052600c908201526b125b9a5d1a585b081b5a5b9d60a21b606082015260800190565b60405180910390a25b5050505062000667565b600580546001600160a01b038381166001600160a01b0319831681179093556040519116919082907f8be0079c531659141344cd1fd0a4f28419497f9722a3daafe3b4186f6b6457e090600090a35050565b6001600160a01b038216620001f55760405163ec442f0560e01b8152600060048201526024016200007e565b620002036000838362000207565b5050565b6200021162000223565b6200021e83838362000258565b505050565b62000237600554600160a01b900460ff1690565b15620002565760405163d93c066560e01b815260040160405180910390fd5b565b6001600160a01b038316620002875780600260008282546200027b91906200063f565b90915550620002fb9050565b6001600160a01b03831660009081526020819052604090205481811015620002dc5760405163391434e360e21b81526001600160a01b038516600482015260248101829052604481018390526064016200007e565b6001600160a01b03841660009081526020819052604090209082900390555b6001600160a01b038216620003195760028054829003905562000338565b6001600160a01b03821660009081526020819052604090208054820190555b816001600160a01b0316836001600160a01b03167fddf252ad1be2c89b69c2b068fc378daa952ba7f163c4a11628f55a4df523b3ef836040516200037e91815260200190565b60405180910390a3505050565b634e487b7160e01b600052604160045260246000fd5b600082601f830112620003b357600080fd5b81516001600160401b0380821115620003d057620003d06200038b565b604051601f8301601f19908116603f01168101908282118183101715620003fb57620003fb6200038b565b816040528381526020925086838588010111156200041857600080fd5b600091505b838210156200043c57858201830151818301840152908201906200041d565b600093810190920192909252949350505050565b600080600080608085870312156200046757600080fd5b84516001600160401b03808211156200047f57600080fd5b6200048d88838901620003a1565b95506020870151915080821115620004a457600080fd5b50620004b387828801620003a1565b60408701516060880151919550935090506001600160a01b0381168114620004da57600080fd5b939692955090935050565b600181811c90821680620004fa57607f821691505b6020821081036200051b57634e487b7160e01b600052602260045260246000fd5b50919050565b601f8211156200021e57600081815260208120601f850160051c810160208610156200054a5750805b601f850160051c820191505b818110156200056b5782815560010162000556565b505050505050565b81516001600160401b038111156200058f576200058f6200038b565b620005a781620005a08454620004e5565b8462000521565b602080601f831160018114620005df5760008415620005c65750858301515b600019600386901b1c1916600185901b1785556200056b565b600085815260208120601f198616915b828110156200061057888601518255948401946001909101908401620005ef565b50858210156200062f5787850151600019600388901b60f8161c191681555b5050505050600190811b01905550565b808201808211156200066157634e487b7160e01b600052601160045260246000fd5b92915050565b61139180620006776000396000f3fe608060405234801561001057600080fd5b50600436106101735760003560e01c806367d74de2116100de57806395d89b4111610097578063dd62ed3e11610071578063dd62ed3e14610323578063e63ea4081461035c578063e8b9d93c1461036f578063f2fde38b1461038257600080fd5b806395d89b41146102f5578063a9059cbb146102fd578063cd5965831461031057600080fd5b806367d74de21461027157806370a0823114610284578063715018a6146102ad57806379cc6790146102b55780638456cb59146102c85780638da5cb5b146102d057600080fd5b806332cb6b0c1161013057806332cb6b0c146102025780633f4ba83a1461021557806340c10f191461021d57806342966c68146102305780635a9b0b89146102435780635c975abb1461025f57600080fd5b806306fdde0314610178578063095ea7b3146101965780630b26cf66146101b957806318160ddd146101ce57806323b872dd146101e0578063313ce567146101f3575b600080fd5b610180610395565b60405161018d9190611078565b60405180910390f35b6101a96101a43660046110ae565b610427565b604051901515815260200161018d565b6101cc6101c73660046110d8565b610441565b005b6002545b60405190815260200161018d565b6101a96101ee3660046110f3565b61049b565b6040516012815260200161018d565b6101d26b033b2e3c9fd0803ce800000081565b6101cc6104bf565b6101cc61022b3660046110ae565b6104d1565b6101cc61023e36600461112f565b610677565b61024b610684565b60405161018d989796959493929190611148565b600554600160a01b900460ff166101a9565b6101cc61027f3660046111b1565b6106fc565b6101d26102923660046110d8565b6001600160a01b031660009081526020819052604090205490565b6101cc61088c565b6101cc6102c33660046110ae565b61089e565b6101cc6108b7565b6005546001600160a01b03165b6040516001600160a01b03909116815260200161018d565b6101806108c7565b6101a961030b3660046110ae565b6108d6565b6006546102dd906001600160a01b031681565b6101d2610331366004611238565b6001600160a01b03918216600090815260016020908152604080832093909416825291909152205490565b6101cc61036a3660046110f3565b6108e4565b6101cc61037d3660046111b1565b6109bd565b6101cc6103903660046110d8565b610b23565b6060600380546103a49061126b565b80601f01602080910402602001604051908101604052809291908181526020018280546103d09061126b565b801561041d5780601f106103f25761010080835404028352916020019161041d565b820191906000526020600020905b81548152906001019060200180831161040057829003601f168201915b5050505050905090565b600033610435818585610b5e565b60019150505b92915050565b610449610b70565b600680546001600160a01b038381166001600160a01b0319831681179093556040519116919082907fa6396351cab7f85c5b5591ab726c9a38bb2895a193370b2c63cab20ba895680d90600090a35050565b6000336104a9858285610b9d565b6104b4858585610c16565b506001949350505050565b6104c7610b70565b6104cf610c75565b565b6005546001600160a01b03163314806104f457506006546001600160a01b031633145b6105365760405162461bcd60e51b815260206004820152600e60248201526d139bdd08185d5d1a1bdc9a5e995960921b60448201526064015b60405180910390fd5b61053e610cca565b6001600160a01b0382166105945760405162461bcd60e51b815260206004820152601b60248201527f43616e6e6f74206d696e7420746f207a65726f20616464726573730000000000604482015260640161052d565b6b033b2e3c9fd0803ce8000000816105ab60025490565b6105b591906112a5565b11156106035760405162461bcd60e51b815260206004820152601b60248201527f576f756c6420657863656564206d6178696d756d20737570706c790000000000604482015260640161052d565b61060d8282610cf5565b816001600160a01b03167f9d89e36eadf856db0ad9ffb5a569e07f95634dddd9501141ecf04820484ad0dc8260405161066b918152604060208201819052600b908201526a13585b9d585b081b5a5b9d60aa1b606082015260800190565b60405180910390a25050565b6106813382610d2b565b50565b606080600080600080600080610698610395565b6106a06108c7565b60126002546b033b2e3c9fd0803ce80000006106c46005546001600160a01b031690565b6006546001600160a01b03166106e460055460ff600160a01b9091041690565b969f959e50939c50919a509850965094509092509050565b6006546001600160a01b0316331461074d5760405162461bcd60e51b815260206004820152601460248201527313db9b1e48189c9a5919d94818dbdb9d1c9858dd60621b604482015260640161052d565b610755610cca565b6001600160a01b0384166107ab5760405162461bcd60e51b815260206004820152601b60248201527f43616e6e6f74206d696e7420746f207a65726f20616464726573730000000000604482015260640161052d565b6b033b2e3c9fd0803ce8000000836107c260025490565b6107cc91906112a5565b111561081a5760405162461bcd60e51b815260206004820152601b60248201527f576f756c6420657863656564206d6178696d756d20737570706c790000000000604482015260640161052d565b6108248484610cf5565b836001600160a01b03167f9d89e36eadf856db0ad9ffb5a569e07f95634dddd9501141ecf04820484ad0dc8484846040516020016108639291906112c6565b60408051601f198184030181529082905261087e92916112ef565b60405180910390a250505050565b610894610b70565b6104cf6000610d61565b6108a9823383610b9d565b6108b38282610d2b565b5050565b6108bf610b70565b6104cf610db3565b6060600480546103a49061126b565b600033610435818585610c16565b6108ec610b70565b306001600160a01b038416036109445760405162461bcd60e51b815260206004820152601a60248201527f43616e6e6f742077697468647261772051435420746f6b656e73000000000000604482015260640161052d565b60405163a9059cbb60e01b81526001600160a01b0383811660048301526024820183905284169063a9059cbb906044016020604051808303816000875af1158015610993573d6000803e3d6000fd5b505050506040513d601f19601f820116820180604052508101906109b79190611310565b50505050565b6006546001600160a01b03163314610a0e5760405162461bcd60e51b815260206004820152601460248201527313db9b1e48189c9a5919d94818dbdb9d1c9858dd60621b604482015260640161052d565b610a16610cca565b6001600160a01b038416610a6c5760405162461bcd60e51b815260206004820152601d60248201527f43616e6e6f74206275726e2066726f6d207a65726f2061646472657373000000604482015260640161052d565b82610a8c856001600160a01b031660009081526020819052604090205490565b1015610ada5760405162461bcd60e51b815260206004820152601c60248201527f496e73756666696369656e742062616c616e636520746f206275726e00000000604482015260640161052d565b610ae48484610d2b565b836001600160a01b03167ffad31924d655455395c87544c8aa1ffdb5a7505a22a3c2e03f28003b6556a75f848484604051602001610863929190611332565b610b2b610b70565b6001600160a01b038116610b5557604051631e4fbdf760e01b81526000600482015260240161052d565b61068181610d61565b610b6b8383836001610df6565b505050565b6005546001600160a01b031633146104cf5760405163118cdaa760e01b815233600482015260240161052d565b6001600160a01b038381166000908152600160209081526040808320938616835292905220546000198110156109b75781811015610c0757604051637dc7a0d960e11b81526001600160a01b0384166004820152602481018290526044810183905260640161052d565b6109b784848484036000610df6565b6001600160a01b038316610c4057604051634b637e8f60e11b81526000600482015260240161052d565b6001600160a01b038216610c6a5760405163ec442f0560e01b81526000600482015260240161052d565b610b6b838383610ecb565b610c7d610ede565b6005805460ff60a01b191690557f5db9ee0a495bf2e6ff9c91a7834c1ba4fdd244a5e8aa4e537bd38aeae4b073aa335b6040516001600160a01b03909116815260200160405180910390a1565b600554600160a01b900460ff16156104cf5760405163d93c066560e01b815260040160405180910390fd5b6001600160a01b038216610d1f5760405163ec442f0560e01b81526000600482015260240161052d565b6108b360008383610ecb565b6001600160a01b038216610d5557604051634b637e8f60e11b81526000600482015260240161052d565b6108b382600083610ecb565b600580546001600160a01b038381166001600160a01b0319831681179093556040519116919082907f8be0079c531659141344cd1fd0a4f28419497f9722a3daafe3b4186f6b6457e090600090a35050565b610dbb610cca565b6005805460ff60a01b1916600160a01b1790557f62e78cea01bee320cd4e420270b5ea74000d11b0c9f74754ebdbfc544b05a258610cad3390565b6001600160a01b038416610e205760405163e602df0560e01b81526000600482015260240161052d565b6001600160a01b038316610e4a57604051634a1406b160e11b81526000600482015260240161052d565b6001600160a01b03808516600090815260016020908152604080832093871683529290522082905580156109b757826001600160a01b0316846001600160a01b03167f8c5be1e5ebec7d5bd14f71427d1e84f3dd0314c0f7b2291e5b200ac8c7c3b92584604051610ebd91815260200190565b60405180910390a350505050565b610ed3610cca565b610b6b838383610f08565b600554600160a01b900460ff166104cf57604051638dfc202b60e01b815260040160405180910390fd5b6001600160a01b038316610f33578060026000828254610f2891906112a5565b90915550610fa59050565b6001600160a01b03831660009081526020819052604090205481811015610f865760405163391434e360e21b81526001600160a01b0385166004820152602481018290526044810183905260640161052d565b6001600160a01b03841660009081526020819052604090209082900390555b6001600160a01b038216610fc157600280548290039055610fe0565b6001600160a01b03821660009081526020819052604090208054820190555b816001600160a01b0316836001600160a01b03167fddf252ad1be2c89b69c2b068fc378daa952ba7f163c4a11628f55a4df523b3ef8360405161102591815260200190565b60405180910390a3505050565b6000815180845260005b818110156110585760208185018101518683018201520161103c565b506000602082860101526020601f19601f83011685010191505092915050565b60208152600061108b6020830184611032565b9392505050565b80356001600160a01b03811681146110a957600080fd5b919050565b600080604083850312156110c157600080fd5b6110ca83611092565b946020939093013593505050565b6000602082840312156110ea57600080fd5b61108b82611092565b60008060006060848603121561110857600080fd5b61111184611092565b925061111f60208501611092565b9150604084013590509250925092565b60006020828403121561114157600080fd5b5035919050565b600061010080835261115c8184018c611032565b90508281036020840152611170818b611032565b60ff9990991660408401525050606081019590955260808501939093526001600160a01b0391821660a08501521660c0830152151560e09091015292915050565b600080600080606085870312156111c757600080fd5b6111d085611092565b935060208501359250604085013567ffffffffffffffff808211156111f457600080fd5b818701915087601f83011261120857600080fd5b81358181111561121757600080fd5b88602082850101111561122957600080fd5b95989497505060200194505050565b6000806040838503121561124b57600080fd5b61125483611092565b915061126260208401611092565b90509250929050565b600181811c9082168061127f57607f821691505b60208210810361129f57634e487b7160e01b600052602260045260246000fd5b50919050565b8082018082111561043b57634e487b7160e01b600052601160045260246000fd5b6c0213934b233b29036b4b73a1d1609d1b81528183600d83013760009101600d01908152919050565b8281526040602082015260006113086040830184611032565b949350505050565b60006020828403121561132257600080fd5b8151801515811461108b57600080fd5b6c0213934b233b290313ab9371d1609d1b81528183600d83013760009101600d0190815291905056fea2646970667358221220855d6258c849886154121f2c7c2e1b99fa7f15df740470818d1414765248dad164736f6c63430008140033",
  "linkReferences": {},
  "deployedLinkReferences": {}
}