{
  "_format": "hh-sol-artifact-1",
  "contractName": "ClaimManager",
  "sourceName": "contracts/ClaimManager.sol",
  "abi": [
    {
      "anonymous": false,
      "inputs": [
        {
          "indexed": true,
          "internalType": "bytes32",
          "name": "claimId",
          "type": "bytes32"
        },
        {
          "indexed": true,
          "internalType": "address",
          "name": "to",
          "type": "address"
        },
        {
          "indexed": false,
          "internalType": "uint256",
          "name": "amount",
          "type": "uint256"
        },
        {
          "indexed": false,
          "internalType": "bytes32",
          "name": "srcTx",
          "type": "bytes32"
        }
      ],
      "name": "ClaimRedeemed",
      "type": "event"
    },
    {
      "inputs": [
        {
          "internalType": "bytes32",
          "name": "claimId",
          "type": "bytes32"
        }
      ],
      "name": "cancelExpired",
      "outputs": [],
      "stateMutability": "nonpayable",
      "type": "function"
    },
    {
      "inputs": [
        {
          "internalType": "bytes32",
          "name": "claimId",
          "type": "bytes32"
        },
        {
          "internalType": "address",
          "name": "to",
          "type": "address"
        },
        {
          "internalType": "uint256",
          "name": "amount",
          "type": "uint256"
        },
        {
          "internalType": "bytes",
          "name": "",
          "type": "bytes"
        }
      ],
      "name": "redeem",
      "outputs": [],
      "stateMutability": "nonpayable",
      "type": "function"
    },
    {
      "inputs": [
        {
          "internalType": "bytes32",
          "name": "",
          "type": "bytes32"
        }
      ],
      "name": "redeemed",
      "outputs": [
        {
          "internalType": "bool",
          "name": "",
          "type": "bool"
        }
      ],
      "stateMutability": "view",
      "type": "function"
    }
  ],
  "bytecode": "0x608060405234801561001057600080fd5b5061026b806100206000396000f3fe608060405234801561001057600080fd5b50600436106100415760003560e01c80633d8b9e07146100465780634124261d1461007d578063605ac3be146100a8575b600080fd5b61006961005436600461017a565b60006020819052908152604090205460ff1681565b604051901515815260200160405180910390f35b6100a661008b36600461017a565b6000908152602081905260409020805460ff19166001179055565b005b6100a66100b6366004610193565b60008581526020819052604090205460ff161561010c5760405162461bcd60e51b815260206004820152601060248201526f185b1c9958591e481c995919595b595960821b604482015260640160405180910390fd5b600085815260208190526040808220805460ff19166001179055516001600160a01b0386169187917fc1813b686008355271d984885184647b1c45cd9a28e4fd1f6c6b9d3d31977afe9161016b91889190918252602082015260400190565b60405180910390a35050505050565b60006020828403121561018c57600080fd5b5035919050565b6000806000806000608086880312156101ab57600080fd5b8535945060208601356001600160a01b03811681146101c957600080fd5b935060408601359250606086013567ffffffffffffffff808211156101ed57600080fd5b818801915088601f83011261020157600080fd5b81358181111561021057600080fd5b89602082850101111561022257600080fd5b969995985093965060200194939250505056fea264697066735822122048976cdcd5342b23ec0455f23c8773947b8d729d52557d4cefa8b4eb31a485b764736f6c63430008140033",
  "linkReferences": {},
  "deployedLinkReferences": {}
}